:100000000C9403010C9430010C9430010C943001D9
:100010000C9430010C9430010C9430010C9430019C
:100020000C9430010C9430010C9430010C9430018C
:100030000C9430010C947C010C9430010C94300130
:100040000C9430010C9430010C9430010C9430016C
:100050000C9430010C9430010C9430010C949005F8
:100060000C9430010C9430010C9430010C9430014C
:100070000C9430010C9430010C9430010C9430013C
:100080000C9430010C9430010C9430010C9430012C
:100090000C9430010C9430010C9430010C9430011C
:1000A0000C9430010C9430010C9430010C9430010C
:1000B0000C9430010C9430010C9430010C943001FC
:1000C0000C9430010C9430010C9430010C943001EC
:1000D0000C9430010C9430010C9430010C943001DC
:1000E0000C94300100002100240027002A002D007C
:1000F0003000330001010000040107010A01000083
:100100002200250028002B002E00310034000201BF
:100110000000050108010B0100002000230026005B
:1001200029002C002F00320000010000030106010D
:10013000090105050505070508080808020202026D
:100140000A0A080804040404010101010101010173
:100150000303030303030303040707070C0C0C0C3E
:100160000C0C0C0C02020202060606060606060627
:100170000B0B0B0B0B0B0B0B0102102020080810B4
:100180002040102040800201020108040201010207
:1001900004081020408080402010080402018004E0
:1001A000020180402010080402010804020101023B
:1001B0000408102040800102040810204080000044
:1001C000090A02080B0C0D070603040100000000D9
:1001D000000000000000000000000000000000001F
:1001E0000000000000000000000011100F000000DF
:1001F00000000000000000000000000000000000FF
:1002000000000000230411241FBECFEFD1E2DEBFA7
:10021000CDBF00E00CBF12E0A0E0B2E0ECE2F0E104
:1002200000E00BBF02C007900D92A032B107D9F7D2
:100230001BBE12E0A0E2B2E001C01D92A235B107E0
:10024000E1F712E0C6E0D2E004C02297FE010E946E
:100250001008C430D107C9F70E9481050C94140816
:100260000C940000CF93DF93EC01862F90E0FC010B
:10027000E858FE4FE491EC83A42FB0E0FD01E8586C
:10028000FE4FE491ED838E5C9E4FFC01449150E063
:10029000440F551FFA01E250FF4F859194919F83BF
:1002A0008E83AE5CBE4FFD018491E82FF0E0EE0F2F
:1002B000FF1FE85EFE4F859194919B878A87FA0124
:1002C000EC51FF4F8591949199878887F1E0253F04
:1002D0003F0714F024EF31E089E390E0AC01249F64
:1002E000C001259F900D349F900D11244C969D8741
:1002F0008C87DF91CF9108951F920F920FB60F92C6
:100300000BB60F9211242F933F934F935F936F93EC
:100310007F938F939F93AF93BF93EF93FF93E0915E
:100320002002F0912102309709F01995FF91EF9189
:10033000BF91AF919F918F917F916F915F914F91FD
:100340003F912F910F900BBE0F900FBE0F901F90FB
:1003500018959B01CB014C9669E370E00E94D80789
:1003600040E050E0232B11F041E050E09B01641786
:10037000750708F49A01C9010895CF93DF93EC0142
:10038000E885F98580819C81892B8083EE81FF81BE
:1003900090818C8180958923808384E090E00E9405
:1003A000FE05EE81FF8180819C81892B80838AE01C
:1003B00090E00E94FE05EE81FF8190818C81809506
:1003C00089238083E885F98590818C8180958923B4
:1003D00080830E94D805605B794B8F4F9F4F6E875B
:1003E0007F87888B998BEA85FB85208130E08D8122
:1003F00090E028233923232BC9F00E94D8052E85AD
:100400003F8548895989261737074807590770F0EB
:10041000EACF0E94D8052E853F854889598926173D
:1004200037074807590710F480E019C0EA85FB85B3
:10043000208130E08D8190E028233923232B49F35C
:100440000E94D8052C853D8540E050E0260F371FDF
:10045000481F591F2E873F87488B598B81E0DF91BA
:10046000CF910895CF93DF93EC010E94BD018823C3
:1004700061F422C00E94D8052E853F85488959899C
:100480002617370748075907B8F0EA85FB8520810A
:1004900030E08D8190E028233923232B59F70E94E7
:1004A000D8054C855D85455050402E853F85421BC3
:1004B000530B460F571F02C040E050E0CA01DF91C6
:1004C000CF9108950F931F938C01FC01868160E00A
:1004D0000E94850781E090E00E94FE05F801868178
:1004E00061E00E94850781E090E00E94FE05F8012E
:1004F000868160E00E94850784E690E00E94FE0508
:100500001F910F910895CF92DF92EF92FF920F9378
:100510001F93CF93DF93D82EC92E282F392FC901CF
:100520008C01C0E0D0E0E62EFF24F801878161E075
:100530000E94D206B7010C2E02C0759567950A94E9
:10054000E2F76170F80187810E94850721960F5FAD
:100550001F4FC830D10549F78D2D9C2D0E94620296
:10056000DF91CF911F910F91FF90EF90DF90CF908F
:100570000895CF92DF92EF92FF920F931F93CF9344
:10058000DF93D82EC92E282F392FC9018C01C0E046
:10059000D0E0E62EFF24F801878161E00E94D206B8
:1005A000B7010C2E02C0759567950A94E2F7617049
:1005B000F80187810E94850721960F5F1F4FC43085
:1005C000D10549F78D2D9C2D0E946202DF91CF91BC
:1005D0001F910F91FF90EF90DF90CF9008951F93A0
:1005E000CF93DF93EC01162F8C81642F0E94850737
:1005F0008D818F3F19F060E00E9485078F8584FF11
:1006000005C0CE01612F0E9483020EC0612F70E0F1
:1006100084E0759567958A95E1F7CE010E94B9024D
:10062000CE01612F0E94B902DF91CF911F910895F1
:1006300041E00E94EF0281E090E0089540E00E94D6
:10064000EF020895FC016089862F8460808B6C60C6
:10065000CF010E941E03089561E00E941E0380EDF9
:1006600097E00E94FE050895CF93DF93EC0142309E
:1006700018F08F8588608F874B8B1C8A222329F086
:10068000413019F48F8584608F8780E593EC0E9458
:10069000FE058C8160E00E9485078E8160E00E94EB
:1006A00085078D818F3F19F060E00E9485076F8577
:1006B00064FD1DC0CE0163E00E94B90284E991E1AE
:1006C0000E94FE05CE0163E00E94B90284E991E137
:1006D0000E94FE05CE0163E00E94B90286E990E027
:1006E0000E94FE05CE0162E00E94B90216C060625F
:1006F000CE010E941E0384E991E10E94FE056F85F0
:100700006062CE010E941E0386E990E00E94FE0511
:100710006F856062CE010E941E036F856062CE010C
:100720000E941E0384E0888BCE010E942203CE012A
:100730000E942C0382E0898BCE0166E00E941E039A
:10074000DF91CF9108956F927F928F92AF92CF9267
:10075000EF920F931F93DF93CF93CDB7DEB73C019A
:10076000162F842FF301448325830683E782C086F6
:10077000A18682869E8593879F8594879889958791
:100780009989968761E00E94D206F30185818F3FA7
:1007900019F061E00E94D206F301868161E00E94B7
:1007A000D206112319F0F301178603C080E1F3018B
:1007B0008787C30160E141E020E00E943403CF91CC
:1007C000DF911F910F91EF90CF90AF908F907F901E
:1007D0006F9008958F92AF92CF92EF920F931F93E5
:1007E000CF93DF93DC01362F542F722F102FAE2CB6
:1007F0008C2C13961C921E9212978CE192E011960B
:100800009C938E9300D00F92EDB7FEB73196CDB783
:10081000DEB71982118212821382CD0161E0432F6B
:100820002FEF052FE72EC12E0E94A3030F900F90EC
:100830000F900F90DF91CF911F910F91EF90CF907C
:10084000AF908F900895CF92EF920F9382E292E053
:100850006CE04BE028EC30E00E94320184E392E04F
:100860006CE04BE025E004E053E0E52E32E0C32EDF
:100870000E94EA030F91EF90CF900895CF92DF92FC
:10088000EF92FF920F931F9362E370E080E090E09D
:100890000E946A0662E2E62E62E0F62EC7010E941E
:1008A00032026C0104E312E0C80160E072E00E94D1
:1008B0006B05C701B6010E94A901BC01C8014AE04D
:1008C00050E00E945A05C80167E072E00E946E0580
:1008D0001F910F91FF90EF90DF90CF9008950F93AD
:1008E0001F9304E312E0C80160E142E020E00E94AF
:1008F0003403C8016AE072E00E946B051F910F91FA
:100900000895CF92DF92EF92FF920F931F93CF93B0
:10091000DF937C016B018A01C0E0D0E00FC0D601FB
:100920006D916D01D701ED91FC910190F081E02D69
:10093000C7011995C80FD91F0150104001151105A5
:1009400071F7CE01DF91CF911F910F91FF90EF9042
:10095000DF90CF900895EF92FF920F931F938C0139
:10096000DC01ED91FC910190F081E02D6DE0199595
:100970007C01D801ED91FC910190F081E02DC8013E
:100980006AE019959C012E0D3F1DC9011F910F9121
:10099000FF90EF900895CF93DF93EC0161157105FF
:1009A00019F420E030E00FC0DB010D900020E9F7E2
:1009B0001197A61BB70BE881F9810280F381E02D26
:1009C000AD0119959C01C901DF91CF9108954F9216
:1009D0005F927F928F929F92AF92BF92CF92DF925F
:1009E000EF92FF920F931F93DF93CF93CDB7DEB7B4
:1009F000A1970FB6F894DEBF0FBECDBF2C01742EA9
:100A0000CB01223008F42AE019A231E2C32ED12C06
:100A1000CC0EDD1E822E9924AA24BB24672D752FAF
:100A2000A50194010E94EC0779018A01C801B70170
:100A3000A50194010E94B907472D461B0894C108DF
:100A4000D1084A3014F4405D01C0495CF60140838E
:100A5000E114F1040105110521F07E2C5F2DC80180
:100A6000DDCFC201B6010E94CB04A1960FB6F89467
:100A7000DEBF0FBECDBFCF91DF911F910F91FF90D1
:100A8000EF90DF90CF90BF90AF909F908F907F902E
:100A90005F904F900895DC012115310541F4ED91EF
:100AA000FC910190F081E02D642F199508950E942A
:100AB000E7040895EF92FF920F931F939A017B0131
:100AC00000E010E0B801A7010E944B051F910F91B3
:100AD000FF90EF9008950E94CB040895EF92FF924B
:100AE0000F931F937C010E94CB048C01C7010E94CD
:100AF000AB04080F191FC8011F910F91FF90EF90D1
:100B00000895CF93DF930E9408060E946F04C0E00F
:100B1000D0E00E943E042097E1F30E940000F9CF4C
:100B20001F920F920FB60F9211242F933F938F9322
:100B30009F93AF93BF9380914D0290914E02A091ED
:100B40004F02B0915002309151020196A11DB11D8A
:100B5000232F2D5F2D3720F02D570196A11DB11D9C
:100B60002093510280934D0290934E02A0934F0226
:100B7000B09350028091490290914A02A0914B0299
:100B8000B0914C020196A11DB11D80934902909332
:100B90004A02A0934B02B0934C02BF91AF919F9138
:100BA0008F913F912F910F900FBE0F901F9018952E
:100BB0009FB7F8942091490230914A0240914B022C
:100BC00050914C0286B5A89B06C08F3F21F02F5F45
:100BD0003F4F4F4F5F4F9FBF542F432F322F22273E
:100BE000280F311D411D511D82E0220F331F441F6C
:100BF000551F8A95D1F7B901CA010895019739F0B7
:100C0000880F991F880F991F02970197F1F7089590
:100C1000789484B5826084BD84B5816084BD85B5D7
:100C2000826085BD85B5816085BDEEE6F0E080819E
:100C300081608083E1E8F0E01082808182608083BF
:100C4000808181608083E0E8F0E080818160808342
:100C5000E1EBF0E0808184608083E0EBF0E0808174
:100C600081608083E1E9F0E080818260808380811F
:100C700081608083E0E9F0E0808181608083E1EA47
:100C8000F0E0808182608083808181608083E0EAFF
:100C9000F0E0808181608083E1E2F1E08081826028
:100CA0008083808181608083E0E2F1E080818160E7
:100CB0008083EAE7F0E080818460808380818260C5
:100CC00080838081816080838081806880831092AE
:100CD000C1000895EF92FF920F931F93CF93DF937C
:100CE0007B018C013FB7F8948091490290914A02B0
:100CF000A0914B02B0914C0226B5A89B05C02F3F96
:100D000019F00196A11DB11D3FBFBA2FA92F982F31
:100D10008827820F911DA11DB11D52E0880F991FD8
:100D2000AA1FBB1F5A95D1F7EC0130C00E94B8072B
:100D30003FB7F8948091490290914A02A0914B02EA
:100D4000B0914C0226B5A89B05C02F3F19F0019623
:100D5000A11DB11D3FBFBA2FA92F982F8827820F41
:100D6000911DA11DB11D32E0880F991FAA1FBB1F45
:100D70003A95D1F78C1B9D0B885E9340B8F208948E
:100D8000E108F10801091109C851DC4FE114F1042F
:100D90000105110559F6DF91CF911F910F91FF9039
:100DA000EF900895CF93DF93482F50E0CA01885801
:100DB0009E4FFC0134914E5C5E4FFA018491882372
:100DC00069F190E0880F991FFC01EC51FF4FA5914C
:100DD000B491FC01E250FF4FC591D491662351F4C8
:100DE0002FB7F8948C91932F909589238C938881B9
:100DF00089230BC0623061F42FB7F8948C91932F44
:100E0000909589238C938881832B88832FBF06C07C
:100E10009FB7F8948C91832B8C939FBFDF91CF91D8
:100E20000895893009F449C08A30A0F4843051F122
:100E3000853040F4823079F1833000F5813009F05B
:100E400063C026C0873079F1883098F5863009F084
:100E50005BC025C08D3009F442C08E3028F48B3041
:100E6000B1F18C30C0F52DC0803109F442C0813120
:100E700009F445C08F3009F047C037C08091800029
:100E80008F7703C0809180008F7D809380000895CC
:100E900084B58F7702C084B58F7D84BD089580911D
:100EA000B0008F7703C08091B0008F7D8093B00039
:100EB0000895809190008F7707C0809190008F7D7A
:100EC00003C080919000877F809390000895809167
:100ED000A0008F7707C08091A0008F7D03C0809114
:100EE000A000877F8093A0000895809120018F77D4
:100EF00003C0809120018F7D80932001089580910F
:100F00002001877F809320010895FF920F931F9304
:100F1000F62E482F50E0CA0182549E4FFC012491C6
:100F2000CA0188589E4FFC0114914E5C5E4FFA0135
:100F300004910023C9F0222319F0822F0E94110787
:100F4000E02FF0E0EE0FFF1FE250FF4FA591B491AC
:100F50009FB7F894FF2021F48C911095812302C053
:100F60008C91812B8C939FBF1F910F91FF900895BF
:100F70000895629FD001739FF001829FE00DF11DE3
:100F8000649FE00DF11D929FF00D839FF00D749F03
:100F9000F00D659FF00D9927729FB00DE11DF91FAF
:100FA000639FB00DE11DF91FBD01CF01112408950C
:100FB000AA1BBB1B51E107C0AA1FBB1FA617B7077F
:100FC00010F0A61BB70B881F991F5A95A9F780959B
:100FD0009095BC01CD010895A1E21A2EAA1BBB1B5E
:100FE000FD010DC0AA1FBB1FEE1FFF1FA217B307F5
:100FF000E407F50720F0A21BB30BE40BF50B661F0B
:10100000771F881F991F1A9469F7609570958095CE
:1010100090959B01AC01BD01CF010895EE0FFF1F1C
:0C1020000590F491E02D1994F894FFCF96
:10102C0050696E673A2000636D0068656C6C6F2CBC
:10103C0020776F726C64210000000000180381049B
:00000001FF
