:100000000C940C010C9439010C9439010C943901B5
:100010000C9439010C9439010C9439010C94390178
:100020000C9439010C9439010C9439010C94390168
:100030000C9439010C9439010C9439010C94390158
:100040000C9439010C9439010C9439010C94390148
:100050000C9439010C9439010C9439010C94023937
:100060000C9439010C947A2D0C94BF2E0C94390108
:100070000C9439010C9439010C9439010C94390118
:100080000C9439010C9439010C9439010C94390108
:100090000C94B92D0C94FE2E0C9439010C9439015A
:1000A0000C9439010C9439010C9439010C943901E8
:1000B0000C9439010C9439010C9439010C943901D8
:1000C0000C9439010C9439010C9439010C94F82DDD
:1000D0000C943D2F0C9439010C94372E0C947C2FEA
:1000E0000C94390100002100240027002A002D0073
:1000F0003000330001010000040107010A01000083
:100100002200250028002B002E00310034000201BF
:100110000000050108010B0100002000230026005B
:1001200029002C002F00320000010000030106010D
:10013000090105050505070508080808020202026D
:100140000A0A080804040404010101010101010173
:100150000303030303030303040707070C0C0C0C3E
:100160000C0C0C0C02020202060606060606060627
:100170000B0B0B0B0B0B0B0B0102102020080810B4
:100180002040102040800201020108040201010207
:1001900004081020408080402010080402018004E0
:1001A000020180402010080402010804020101023B
:1001B0000408102040800102040810204080000044
:1001C000090A02080B0C0D070603040100000000D9
:1001D000000000000000000000000000000000001F
:1001E0000000000000000000000011100F000000DF
:1001F00000000000000000000000000000000000FF
:10020000000000004906AB0678091B0B130DEC0E2D
:100210005B2BEC302E32542B11241FBECFEFD1E2DA
:10022000DEBFCDBF00E00CBF1AE0A0E0B2E0E0E42A
:10023000FAE700E00BBF02C007900D92A035B107AE
:10024000D9F71BBE18E1A0E5BAE001C01D92AD319F
:10025000B107E1F712E0C6E1D2E004C02297FE0147
:100260000E940F3DC430D107C9F70E94FA360C94A2
:10027000133D0C940000FB01DC0102C001900D92C3
:1002800041505040D8F70895FB01DC018D91019059
:1002900080190110D9F3990B0895FB01DC0101903D
:1002A0000D920020E1F70895FB019F01E894423090
:1002B000C4F04532B4F44A3029F497FB1EF490950B
:1002C00081959F4F642F77270E94F93C805D8A3388
:1002D0000CF0895D8193CB010097A1F716F45DE2E4
:1002E00051931082C9010C94E401FA01CF93FF935A
:1002F000EF93223044F1253234F5C22FE894CA300E
:1003000049F497FB3EF490958095709561957F4FE9
:100310008F4F9F4F2C2F332744275527FF93EF9361
:100320000E94D73CEF91FF91605D6A330CF0695DEC
:100330006193B901CA01605070408040904051F70C
:1003400016F4CDE2C19310828F919F91CF910C94BE
:10035000E401FA01CF93FF93EF932230CCF02532E2
:10036000BCF4C22F2C2F332744275527FF93EF933C
:100370000E94D73CEF91FF91605D6A330CF0695D9C
:100380006193B901CA01605070408040904051F7BC
:1003900010828F919F91CF910C94E401FB019F01FA
:1003A000423074F0453264F4642F77270E94F93CA0
:1003B000805D8A330CF0895D8193CB010097A1F7B2
:1003C0001082C9010C94E401DC01FC01672F7191DA
:1003D0007723E1F7329704C07C916D93708362912B
:1003E000AE17BF07C8F3089585E361E00E94D53AD0
:1003F00085E361E00E94223A8CB580618CBD8CB5AA
:1004000080648CBD84E361E00E94223A83E361E072
:100410000E94223A0895682F82E59AE048E050E071
:100420000E940506089590E0982F88278E5F9B4FC5
:100430000E94530408951F93182F982F80E08D5F1A
:100440009B4F0E945304833111F080E008C082E585
:100450009AE0612F42E050E00E94050681E01F9182
:10046000089590E0982F88278E5F9B4F0E9412047A
:1004700008951F93182F82E59AE0612F40E250E023
:100480000E9405060CC0812F0E94130283FF07C043
:10049000812F68E10E94310220E030E00BC0812F03
:1004A0000E94130284FFEFCF812F60E10E9431028E
:1004B00021E030E0C9011F9108951F93182F82E5B4
:1004C0009AE0612F40E150E00E940506812F6FEF16
:1004D0000E9431021F910895FF920F931F93F62EF1
:1004E000672F082F10E00C5F1F4F102F0027C80147
:1004F00040960E941204C80141966F2D0E9412047A
:100500001F910F91FF900895FF920F931F93F62E66
:10051000672F082F10E00C5F1F4F102F0027C80116
:1005200004960E941204C80105966F2D0E941204C1
:100530001F910F91FF900895FF920F931F93CF93F8
:10054000DF93082FF62EEA01122F862F8150853077
:1005500010F080E024C0802F0E945D021F2980E0FF
:10056000902F9C5F612F0E941204209719F0802F1A
:10057000BE010BC06091500A7091510A6F5F7F4FAE
:100580007093510A6093500A802F0E94840282E582
:100590009AE0602F41E050E00E94050681E0DF9183
:1005A000CF911F910F91FF9008951F93CF93DF93E9
:1005B000182FFB01EA018081882349F48181882377
:1005C00031F48281882319F48381882391F0209764
:1005D00081F0912F80E0845F9B4FBF0144E050E0A9
:1005E0000E942C04812FBE010E946C0221E030E0A9
:1005F00002C020E030E0C901DF91CF911F91089542
:100600001F93CF93DF93182FFB01EA0180818F3F67
:1006100051F481818F3F91F482818F3F79F48381FE
:100620008F3F61F423C0882349F48181882331F40A
:100630008281882319F483818823C1F02097B1F047
:10064000912F80E0845F9B4FBF0144E050E00E9407
:100650002C04812FBE010E946C0282E59AE0612F7A
:1006600044E050E00E94050681E001C080E0DF9197
:10067000CF911F910895AF92BF92DF92EF92FF92B8
:100680000F931F93CF93DF93D82EEB015A0189016B
:1006900082E59AE06D2D0E943C058017910710F0CD
:1006A000780106C082E59AE06D2D0E943C057C0130
:1006B00082E59AE06D2DAE01950187010E947504D7
:1006C000C701DF91CF911F910F91FF90EF90DF90C5
:1006D000BF90AF900895AF92BF92DF92EF92FF92DA
:1006E0000F931F93CF93DF93D82E5B018A0188E08D
:1006F0004130580710F000E018E0DD2DC0E0CD5F7C
:10070000DB4F82E59AE06D2D0E943C057C01CE0115
:100710000E945304873129F08C3119F000E010E079
:1007200003C0E016F10668F382E59AE06D2DA5019D
:1007300098010E94E60482E59AE06D2D40E250E0C7
:100740000E9405060BC0CE010E945304882331F499
:100750008D2D0E945D0200E010E009C08D2D0E94E9
:10076000130284FFF0CF8D2D60E10E943102C80199
:10077000DF91CF911F910F91FF90EF90DF90BF908D
:10078000AF9008950F93282FAB0182E59AE0622F76
:1007900021E030E001E00E94BA0581E090E00F9195
:1007A0000895CF92DF92FF920F931F93CF93DF9321
:1007B000F82E6B018A0182E59AE06F2D0E940905EF
:1007C000EC01009769F49F2D80E08D5F9B4F0E94A4
:1007D00053048431D9F08823C9F08C31B9F01FC09B
:1007E000081719070CF4E8011C161D067CF482E5B5
:1007F0009AE06F2DA6019E0100E00E94BA0582E5F5
:100800009AE06F2D40E450E00E940506CE01DF9192
:10081000CF911F910F91FF90DF90CF900895CFEF70
:10082000DFEFF4CF282F2C9880EF8EBD0DB407FE9C
:10083000FDCF8EB59EBD0DB407FEFDCF8EB52EBD8E
:100840000DB407FEFDCF8EB56EBD0DB407FEFDCF16
:100850008EB52C9A81E00895DC0120E030E090EF25
:100860001DC02C989EBD0DB407FEFDCF8EB5BEBD3C
:100870000DB407FEFDCF8EB5AEBD0DB407FEFDCFA6
:100880008EB5FB01E20FF31F80818EBD0DB407FE14
:10089000FDCF11968EB52C9A2F5F3F4F2417350749
:1008A00000F3CA010895282F2C988FE08EBD0DB457
:1008B00007FEFDCF8EB59EBD0DB407FEFDCF8EB5F4
:1008C0002EBD0DB407FEFDCF8EB51EBC0DB407FEC8
:1008D000FDCF8EB52C9A089590E00496982F882726
:1008E000860F971F0E94530408957F928F929F92C4
:1008F000AF92BF92CF92DF92EF92FF920F931F932E
:10090000CF93DF936C01762E7A0149015801862F2F
:1009100064E270E00E946C04182F872D65E270E09D
:100920000E946C04C82FD0E0912F80E0C82BD92BF7
:10093000CE0DDF1DAE015770872D90E0880F991FF7
:10094000C80ED91EF60120813181240F351FCA013E
:100950008A0D9B1D8150984098F000E018E0041B20
:10096000150BC901B401A8010E942C04A501401B6C
:10097000510BF60180819181080D191DB80103C04A
:10098000C901B401A5010E942C047E01EA0CFB1CE4
:10099000072D10E00C5F1F4F102F0027C801849611
:1009A0006F2D0E941204C80185966E2D0E941204BC
:1009B000DF91CF911F910F91FF90EF90DF90CF903B
:1009C000BF90AF909F908F907F9008950F931F934B
:1009D000FA01890140E050E09F010E9475041F91D7
:1009E0000F9108950F931F93182F66E270E00E94F5
:1009F0006C04082F812F67E270E00E946C04502F76
:100A000040E0282F30E0242B352BC9011F910F9196
:100A10000895FF920F931F93CF93DF93F62EC0E0BC
:100A2000D0E08F2D0E94F2048C01009721F08F2DD1
:100A30000E94F204EC01C017D10799F7CE01DF91B3
:100A4000CF911F910F91FF9008950F931F93182F2F
:100A500060E270E00E946C04082F812F61E270E078
:100A60000E946C04502F40E0282F30E0242B352BBF
:100A7000C9011F910F910895FF920F931F93CF9378
:100A8000DF93F62EC0E0D0E08F2D0E9425058C016B
:100A9000009721F08F2D0E942505EC01C017D1078A
:100AA00099F7CE01DF91CF911F910F91FF9008959B
:100AB000DC0120E030E09FE01DC02C989EBD0DB40D
:100AC00007FEFDCF8EB5BEBD0DB407FEFDCF8EB5C2
:100AD000AEBD0DB407FEFDCF8EB51EBC0DB407FE36
:100AE000FDCF11968EB5FB01E20FF31F80832C9A88
:100AF0002F5F3F4F2417350700F3CA010895CF92A7
:100B0000DF92EF92FF920F931F93CF93DF936901D0
:100B100078015770C62FD0E02496CC0FDD1FC80F88
:100B2000D91F28813981240F351FC801840F951FD3
:100B30008150984088F000E018E0041B150BC901B3
:100B4000B601A8010E945805E01AF10A888199812E
:100B50000C0D1D1DB80102C0C901B601A7010E94FC
:100B60005805DF91CF911F910F91FF90EF90DF908B
:100B7000CF9008958F929F92AF92BF92CF92DF92C3
:100B8000EF92FF920F931F93CF93DF937C01A62EDA
:100B90006A014901B02E862F68E270E00E946C0461
:100BA000182F8A2D69E270E00E946C04C82FD0E0F3
:100BB000912F80E0C82BD92BC7016A2DAE01960179
:100BC00084010E947F05BB2099F47E01E80CF91C8A
:100BD0000A2D10E00C5F1F4F102F0027C8018896C8
:100BE0006F2D0E941204C80189966E2D0E94120476
:100BF000DF91CF911F910F91FF90EF90DF90CF90F9
:100C0000BF90AF909F908F9008951F93162F962FAF
:100C100080E08F5F9B4F642F0E941204812F61E060
:100C200070E00E946C048823C9F71F9108950F9308
:100C30001F93182F092F6CE271E080E090E00E9472
:100C4000BA390E94F401249A80E090E060E80E94A2
:100C500012048BE190E065E50E9412048AE190E0C5
:100C600065E50E941204212F302FC901FC0180E0AC
:100C700090E4918380838050904E9187808780504C
:100C80009841329620E68030920799F71F910F9194
:100C900008950F9382E69AE060E040E020E000E0F3
:100CA0000E9422320F9108959C01FB018281938161
:100CB000A481B581F90182839383A483B5831782CC
:100CC00016820895CF93DF93FB0101C03196808196
:100CD0008823E1F7EB01A0E0B0E020E030E021C0A4
:100CE0006E3261F42F3F310509F07CF5FA01EA0F0D
:100CF000FB1F2283119620E030E012C0C901E3E01F
:100D0000880F991FEA95E1F7220F331F820F931F77
:100D1000262F332727FD309520533040280F391FC9
:100D200021966881662319F0A430B105CCF22F3FDB
:100D3000310509F054F4A430B1053CF4A40FB51FFB
:100D400012962C9321E030E002C020E030E0C9018F
:100D5000DF91CF9108950F9388E69AE060E040E03C
:100D600020E000E00E9422320F9108952F923F92DE
:100D70004F925F926F927F928F929F92AF92BF92AB
:100D8000CF92DF92EF92FF920F931F93DF93CF9357
:100D9000CDB7DEB769970FB6F894DEBF0FBECDBFF3
:100DA0004C018B011A010E944A392B013C01F8E0E9
:100DB000EF2EF12CE80CF91C5801CC24DD2414C0D2
:100DC0000E944A396419750986099709A616B7065B
:100DD000C806D90618F42FEF3FEF0BC162E370E0AD
:100DE00080E090E00E94BA39C7010E94600F181697
:100DF000190634F7F4012281338144815581818DB4
:100E0000928DA38DB48D8A879B87AC87BD87281769
:100E100039074A075B0709F0EAC0858D968DC597AB
:100E200009F0E5C000C18E01025F1F4FC701B80184
:100E30004CE050E00E94120FF801528143815B8325
:100E40004A83F401268137818E859F8528173907CB
:100E500011F457FD06C0C7010E94DA0E2CEF3FEFD8
:100E6000C8C04F705270452B31F0C7010E94DA0E96
:100E70002BEF3FEFBEC0F8017680678061147104EC
:100E800041F0AA24BB2448012E010894411C511CA6
:100E900028C0C7010E94DA0E2AEF3FEFAAC0C7019F
:100EA000B20141E050E00E94120F8981882321F4B1
:100EB00008C0C7010E94350F8981815089838F5FE7
:100EC000C1F78981882359F700E010E0C7010E942B
:100ED000350F0F5F1F4F04301105C1F70894A11C97
:100EE000B11CF401D480C580AC14BD04C0F244240C
:100EF0005524C701BE016F5F7F4F41E050E00E9463
:100F0000120F9981892F807C61F4992321F40DC0FF
:100F1000C7010E94350F8981815089838F5FC1F796
:100F200004C0C7010E94350F19828981882309F7FF
:100F3000C701BE016C5F7F4F42E050E00E94120F7C
:100F4000C701BE016A5F7F4F42E050E00E94120F6E
:100F500000E010E0C7010E94350F0F5F1F4F043003
:100F60001105C1F7C701BE016E5F7F4F42E050E03F
:100F70000E94120FDC80CD80F1E0CF16D10419F56C
:100F8000BE80AF8081E0A816B104E9F49A818B811C
:100F9000049731F0C7010E94DA0E27EF3FEF29C016
:100FA000E2E0F0E02E0E3F1EC701B10144E050E048
:100FB0000E94120F21E030E01CC0C7010E94350FD3
:100FC0000F5F1F4F02C000E010E09A808B80081571
:100FD000190598F30894411C511C4614570408F451
:100FE00088CFC7010E94DA0E26EF3FEF02C02EEF36
:100FF0003FEFC90169960FB6F894DEBF0FBECDBFB3
:10100000CF91DF911F910F91FF90EF90DF90CF90E4
:10101000BF90AF909F908F907F906F905F904F9018
:101020003F902F9008958EE49AE099878887C701B2
:101030000E94BE0E0C970CF0F6CE2DEF3FEFD9CFED
:101040006F927F928F929F92AF92BF92CF92DF92D8
:10105000EF92FF920F931F93DF93CF9300D0CDB702
:10106000DEB78C01F62EE72E0E944A39F80177830D
:101070006683B8E0CB2ED12CC00ED11E0A5F1F4F65
:10108000C601B80142E050E00E94B40F81E090E058
:101090009B838A83A2E08A2E912C8C0E9D1EC60112
:1010A000B40142E050E00E94B40F80E091E09B83E5
:1010B0008A83C601B40142E050E00E94B40F1B8253
:1010C0001A82C601B40142E050E00E94B40FC6018A
:1010D000B40142E050E00E94B40FC601B40142E006
:1010E00050E00E94B40F2F2D3E2DC9018C017C01D0
:1010F0003E010894611C711C20C00894E11CF11C85
:10110000F7018081882311F08E32B9F75701A01AB8
:10111000B10A1A141B0474F48E2D801B8983C60136
:10112000B30141E050E00E94B40FC601B801A5012F
:101130000E94B40F87010F5F1F4FF7018081882342
:1011400011F07801DDCF1982C601BE016F5F7F4FBC
:1011500041E050E00E94B40F00E011E01B830A83DD
:10116000C601B40142E050E00E94B40F1B830A8321
:10117000C601B40142E050E00E94B40F81E090E06B
:101180000F900F900F90CF91DF911F910F91FF90D3
:10119000EF90DF90CF90BF90AF909F908F907F9017
:1011A0006F9008958F929F92AF92BF92CF92DF92ED
:1011B000EF92FF920F931F93DF93CF9300D000D055
:1011C000CDB7DEB76C017B014A010E946206892B14
:1011D00019F001E010E067C0F601228133814481FB
:1011E000558180916A0A90916B0AA0916C0AB09126
:1011F0006D0A281739074A075B0719F40EEF1FEF2E
:1012000052C018E0A12EB12CAC0CBD1C0E944A3972
:101210009B01AC012F70307020503C4FC501B901CB
:101220000E947810813019F000E010E03CC08EE49C
:101230009AE09A838983F60182819381A481B581A2
:101240008B839C83AD83BE83C501BE016F5F7F4FDF
:1012500045E350E00E94D40F8C01009709F1C601CC
:10126000B7010E9420088C010097D1F0C5010E94AF
:10127000CF0F8C010097A1F0EE24FF24C60168E88F
:1012800073E1A4010E94B6068C010894E11CF11CD4
:10129000F3E0EF16F10421F08FEF0F3F180771F321
:1012A000C5010E946310C80126960FB6F894DEBFF0
:1012B0000FBECDBFCF91DF911F910F91FF90EF90A7
:1012C000DF90CF90BF90AF909F908F900895DB01FB
:1012D000FC012EE43AE03183208312962D913D915A
:1012E0004D915C91159722833383448355830895F0
:1012F0000F938EE79AE060E040E020E000E00E947B
:10130000223286E79AE00E948C320F9108956F9204
:101310007F928F929F92AF92BF92CF92DF92EF9285
:10132000FF920F931F933C015B016A01490182E523
:101330009AE00E94170689E090E0B50146E050E08F
:101340000E942C0482E090E0C80ED91E8FE090E04D
:10135000B60144E050E00E942C040E5F1F4F81E074
:1013600090E0B80144E050E00E942C04E2E0F0E09C
:10137000EE0EFF1E85E090E0B70144E050E00E94D1
:101380002C04F40182819381A481B581F3018283CD
:101390009383A483B5831F910F91FF90EF90DF900B
:1013A000CF90BF90AF909F908F907F906F90089557
:1013B0006F927F928F929F92AF92BF92CF92DF9265
:1013C000EF92FF920F931F93DF93CF93CDB7DEB7CA
:1013D0006E970FB6F894DEBF0FBECDBF4C013B0138
:1013E0007A0169015801CE0101966FEF4FEF2FEF9F
:1013F00000E00E9422322EE43AE038872F83F70182
:1014000082819381A481B58189879A87AB87BC87C4
:101410003E872D87F60182819381A481B5818F87D4
:10142000988BA98BBA8B3C8B2B8BF5018281938196
:10143000A481B5818D8B9E8BAF8BB88F3A8F298F0E
:101440008B819C81AD81BE818B8F9C8FAD8FBE8F38
:10145000C401B301AE01495F5F4F9E01235F3F4F5F
:101460008E010D5E1F4FE9E1EE2EF12CEC0EFD1EFC
:101470000E9487096E960FB6F894DEBF0FBECDBFEF
:10148000CF91DF911F910F91FF90EF90DF90CF9060
:10149000BF90AF909F908F907F906F9008950F9323
:1014A0001F93DF93CF93CDB7DEB768970FB6F8944D
:1014B000DEBF0FBECDBFFA01D90122813381448145
:1014C00055812B833C834D835E83EEE4FAE0F887FD
:1014D000EF8329873A874B875C87FE87ED871296D3
:1014E0002D913D914D915C9115972F87388B498BAC
:1014F0005A8BFC8BEB8B21E02E832B813C814D8121
:101500005E812D8B3E8B4F8B588FAE01495F5F4FB5
:101510009E01235F3F4F8E010D5E1F4F0E94D80931
:1015200068960FB6F894DEBF0FBECDBFCF91DF91A6
:101530001F910F910895DF93CF93CDB7DEB76297D8
:101540000FB6F894DEBF0FBECDBFFA012281338102
:10155000448155812B833C834D835E83EEE4FAE026
:10156000F887EF8329873A874B875C87FE87ED876B
:1015700021E02E832B813C814D815E812F87388B2A
:10158000498B5A8BAE01495F5F4F9E01235F3F4FEE
:101590000E944F0A62960FB6F894DEBF0FBECDBF11
:1015A000CF91DF910895FC011382128288EE93E0BF
:1015B000A0E0B0E084839583A683B78384ED96E0B2
:1015C0009183808364870895DF93CF930F92CDB783
:1015D000DEB7FC016983A081B18112962D913C9107
:1015E0001397BE016F5F7F4F41E050E0F9011995FD
:1015F0000F90CF91DF910895CF93DF93EC0107C057
:10160000E881F9810680F781E02DCE011995E88106
:10161000F9810480F581E02DCE011995892B81F7A0
:10162000DF91CF91089520E0FC018485843009F09A
:1016300021E0822F08950F9384E89AE060E040E073
:1016400020E000E00E9422320F910895FC01848581
:10165000843011F480E00895982F80E08D5F9B4FD7
:101660000E9453040895CF93DF93EC018C8584305E
:1016700011F480E019C0CE010E94260B843191F054
:10168000882381F0883171F08C3151F4E881F9813F
:101690000480F581E02DCE01199520E0892B19F009
:1016A00021E001C020E0822FDF91CF910895EF92D9
:1016B000FF920F931F93CF93DF93EC018C858430BF
:1016C00089F10E940B020E944A397B018C01CE01F4
:1016D0000E94260B882301F10E944A396E197F0966
:1016E000800B910B685E734080409040A8F461E0ED
:1016F00070E080E090E00E94BA39E9CF8C850E94CA
:101700005D02EC85F0E0EE0FFF1FE259F54F11820C
:10171000108284E08C8706C0CE010E94260B8823AD
:1017200081F3ECCFDF91CF911F910F91FF90EF905C
:1017300008950F931F93DF93CF930F92CDB7DEB72A
:101740008C01DC01ED91FC910480F581E02D19956F
:10175000892B19F42FEF3FEF0AC0F8018485BE01F1
:101760006F5F7F4F0E94C2038981282F30E0C9013B
:101770000F90CF91DF911F910F910895FC01848507
:101780000E94D1030895DF93CF930F92CDB7DEB7B8
:10179000FC018485BE016F5F7F4F41E050E00E94F5
:1017A000D103181619061CF02FEF3FEF03C08981F3
:1017B000282F30E0C9010F90CF91DF910895FC01EF
:1017C0006485643019F420E030E005C082E59AE0D9
:1017D0000E9409059C01C90108950F931F93CF939F
:1017E000DF938C01EA01FC018485843019F481E0E7
:1017F00090E007C00E946B03892B39F481E090E0F0
:10180000F80193838283C0E0D0E0CE01DF91CF91D5
:101810001F910F910895AF92BF92CF92DF92EF92F6
:10182000FF920F931F93CF93DF937C016B015A01BB
:10183000FC018485843009F056C0C0E0D0E003E0AC
:1018400014E0C8010E945304882321F0883111F06C
:101850008C3119F4F701C48706C0219600501F4F40
:10186000C430D10571F7F70124852430E1F180916E
:10187000C4069091C50601969093C5068093C40650
:10188000892B31F480E094E09093C5068093C406E0
:101890004091C4065091C506822F61E020E00E946D
:1018A0009C0282E090E0C80ED91EF7018485B60143
:1018B000A5010E94000309C061E070E080E090E0B3
:1018C0000E94BA39C7010E94260B882321F484E0C4
:1018D000F701848708C0C7010E94260B873161F792
:1018E00021E030E002C020E030E0C901DF91CF917B
:1018F0001F910F91FF90EF90DF90CF90BF90AF902E
:1019000008956F927F928F929F92AF92BF92CF92E3
:10191000DF92EF92FF920F931F93DF93CF93CDB798
:10192000DEB7E5970FB6F894DEBF0FBECDBF4C0112
:101930005B013A0193E1E92EF12CEC0EFD1EC7018B
:101940000E948C32CE014B960E94DD0F6E010894EE
:10195000C11CD11CC6010E948C328E01095F1F4F31
:10196000C80166E77AE00E946709C701B8010E94D2
:101970005406C701B501A6010E94D2089C0181301E
:101980009105C9F4D401ED91FC910484F585E02D15
:101990008EE49AE09E878D878B819C81AD81BE818C
:1019A0008F87988BA98BBA8BC401BE01635F7F4F71
:1019B000A30119959C01C901E5960FB6F894DEBF05
:1019C0000FBECDBFCF91DF911F910F91FF90EF9090
:1019D000DF90CF90BF90AF909F908F907F906F904F
:1019E0000895FC011382128280EF96E09183808338
:1019F000758364830895DF93CF930F92CDB7DEB7DD
:101A0000FC016983A081B18112962D913C911397BD
:101A1000BE016F5F7F4F41E050E0F90119950F90D3
:101A2000CF91DF9108950F938AE89AE060E040E05B
:101A300020E000E00E9422320F9108958F929F9241
:101A4000BF92CF92DF92EF92FF920F931F93DF939B
:101A5000CF93CDB7DEB72D970FB6F894DEBF0FBE8C
:101A6000CDBF7C010EE61AE088249924BB246E01C8
:101A70000894C11CD11CC6016B2D0E94D30AD80149
:101A80002D913C91F7018481958128173907B1F494
:101A9000C6010E94260B843121F481E0882E912C0E
:101AA0000DC0C6010E94260B8C3141F4C6010E9474
:101AB000DF0B892B19F4C6010E94570BB3940E5FFC
:101AC0001F4FF4E0BF16B9F6892841F4D701ED9114
:101AD000FC910480F581E02DC70119952D960FB674
:101AE000F894DEBF0FBECDBFCF91DF911F910F9154
:101AF000FF90EF90DF90CF90BF909F908F900895D0
:101B00004F925F926F927F928F929F92AF92BF920D
:101B1000DF92EF92FF920F931F93DF93CF93CDB796
:101B2000DEB72D970FB6F894DEBF0FBECDBF4C01C8
:101B30002B013A010E941E0D9EE6E92E9AE0F92E35
:101B400000E010E0DD245E010894A11CB11CC50179
:101B50006D2D0E94D30AF70120813181F401848127
:101B600095812817390761F4C5010E94260B87313A
:101B700039F4C501B201A3010E94ED0B080F191F32
:101B8000D39482E090E0E80EF91E94E0D916F9F6BD
:101B9000C8012D960FB6F894DEBF0FBECDBFCF9112
:101BA000DF911F910F91FF90EF90DF90BF90AF906A
:101BB0009F908F907F906F905F904F9008959F922D
:101BC000AF92BF92CF92DF92EF92FF920F931F934B
:101BD000DF93CF93CDB7DEB72D970FB6F894DEBF66
:101BE0000FBECDBFC82E992E5B01CB010E941E0DEA
:101BF0000EE61AE0DD247E010894E11CF11CC70109
:101C00006D2D0E94D30AF80120813181F501848174
:101C100095812817390761F5C7010E94260B873186
:101C200029F0C7010E94260B8C3111F5C7010E94D3
:101C3000DF0B892BE9F0EC2DF92D8B819C819383AF
:101C400082838D819E81AF81B88584839583A683AD
:101C5000B78389859A85AB85BC8580879187A28764
:101C6000B38784ED96E0918380838D8584870BC054
:101C7000D3940E5F1F4FF4E0DF1609F68C2D992DDB
:101C800064E00E94D30A8C2D992D2D960FB6F894FE
:101C9000DEBF0FBECDBFCF91DF911F910F91FF909F
:101CA000EF90DF90CF90BF90AF909F900895CF922C
:101CB000DF92EF92FF920F931F93DF93CF93CDB7F5
:101CC000DEB72D970FB6F894DEBF0FBECDBF6C0107
:101CD00000E010E07E010894E11CF11CC701602FB8
:101CE0000E94D30AC7010E94260B8823B1F4F60193
:101CF00044815581802F61E020E00E949C02802F6A
:101D00000E941B02000F111F0259154FF60184811A
:101D10009581F8019183808305C00F5F1F4F0430C8
:101D20001105E1F62D960FB6F894DEBF0FBECDBFBC
:101D3000CF91DF911F910F91FF90EF90DF90CF90A7
:101D40000895DC01ED91FC91008CF18DE02D199549
:101D50000895DB01FC012EE43AE0318320835196A3
:101D60002D913D914D915C9154972283338344830F
:101D700055830895FC01858996890895FC01818D1C
:101D8000928D0895DF93CF930F92CDB7DEB7FC010C
:101D90006983A081B18112962D913C911397BE0168
:101DA0006F5F7F4F41E050E0F90119950F90CF919F
:101DB000DF910895CF93DF93EC0107C0E881F981AB
:101DC0000680F781E02DCE011995898D9A8D892B9A
:101DD000A9F7DF91CF9108950F9380E99AE060E031
:101DE00040E020E000E00E9422320F910895DF934E
:101DF000CF930F92CDB7DEB7FC01818D928D892BE9
:101E000019F42FEF3FEF09C08485BE016F5F7F4F4C
:101E10000E94C2038981282F30E0C9010F90CF9121
:101E2000DF910895CF93DF93EC019A01498D5A8D8C
:101E300041155105A1F02417350710F08C8502C01B
:101E40008C85A9010E94D1039C01181619063CF447
:101E5000898D9A8D821B930B9A8F898F02C02FEFE9
:101E60003FEFC901DF91CF9108950F931F93DF9347
:101E7000CF930F92CDB7DEB78C01FC01818D928D8F
:101E8000892BA9F08485BE016F5F7F4F41E050E050
:101E90000E94D1031816190654F4F801818D928D11
:101EA0000197928F818F8981282F30E002C02FEF18
:101EB0003FEFC9010F90CF91DF911F910F910895CE
:101EC000EF92FF920F931F93DF93CF93CDB7DEB7BF
:101ED00028970FB6F894DEBF0FBECDBF8C01DC0192
:101EE000ED91FC910284F385E02D199582E59AE04D
:101EF000F80164850E940905892B19F420E030E07F
:101F000025C0D8011C968C917E010894E11CF11C1F
:101F1000B70148E050E00E94D1039C011816190651
:101F2000ACF4C8010F96B7010E947F329D8180E01A
:101F30002E81820F911DF801968B858B9F8180E009
:101F40002885820F911D928F818F9C01C90128964F
:101F50000FB6F894DEBF0FBECDBFCF91DF911F91BA
:101F60000F91FF90EF9008950F931F938C01FB0149
:101F70009A01DC0157966D917C9158971C968C9133
:101F8000AF010E943B039C01F8018789908D820F6D
:101F9000931F908F878BC9011F910F910895FC01AA
:101FA00084850E9439020895FC01108E178A6E5FA5
:101FB0007F4F84850E94D5020895FC01138212820E
:101FC00088EE93E0A0E0B0E084839583A683B78396
:101FD0008AEF96E09183808384E08487CF010F9617
:101FE0000E948C3208956F927F928F929F92AF924F
:101FF000BF92CF92DF92EF92FF920F931F93DF93E6
:10200000CF93CDB7DEB7E5970FB6F894DEBF0FBE1E
:10201000CDBF4C015B013A0183E1E82EF12CEC0EBF
:10202000FD1EC7010E948C32CE014B960E94DD0F2F
:102030006E010894C11CD11CC6010E948C328E0115
:10204000095F1F4FC80166E77AE00E946709C70170
:10205000B8010E945406C701B501A6010E94D2082A
:102060009C0181309105C9F4D401ED91FC91008867
:10207000F189E02D8EE49AE09E878D878B819C818B
:10208000AD81BE818F87988BA98BBA8BC401BE01AD
:10209000635F7F4FA30119959C01C901E5960FB6B7
:1020A000F894DEBF0FBECDBFCF91DF911F910F918E
:1020B000FF90EF90DF90CF90BF90AF909F908F9068
:1020C0007F906F900895CF93DF93EC018C858430DF
:1020D00061F00E945D02EC85F0E0EE0FFF1FE25917
:1020E000F54F1182108284E08C87DF91CF910895A3
:1020F000CF92DF92EF92FF920F931F93CF93DF93D4
:102100007C016B01FC018485843019F5C0E0D0E0CE
:1021100003E014E0C8010E945304882311F08831C1
:1021200019F4F701C48706C0219600501F4FC43030
:10213000D10581F7F7018485843059F0D686C586AC
:10214000128E118E62E0A60120E00E949C0281E0C6
:1021500001C080E0DF91CF911F910F91FF90EF9030
:10216000DF90CF9008950F931F938C014695642FB5
:1021700070E04AE00E94F135C8011F910F91089567
:102180000F931F93182F092F642F70E047FF02C091
:1021900060507140812F902F4AE00E94F135812FCD
:1021A000902F1F910F9108950F931F93CF93DF935B
:1021B0008B01CB0160E070E00E94E6338733E1F1F0
:1021C00088338CF4833361F1843344F4813311F127
:1021D00082331CF5803309F049C019C0853331F1D1
:1021E00086333CF520C0823499F183343CF4893342
:1021F00049F1893324F18134C9F527C0843471F160
:1022000084344CF1853469F1863481F52DC0C0E009
:10221000D0E02CC0C0E1D0E029C0C0E2D0E026C0B0
:10222000C0E3D0E023C0C0E4D0E020C0C0E5D0E0EF
:102230001DC0C0E6D0E01AC0C0E7D0E017C0C0E8BB
:10224000D0E014C0C0E9D0E011C0C0EAD0E00EC0B8
:10225000C0EBD0E00BC0C0ECD0E008C0C0EDD0E0D7
:1022600005C0C0EED0E002C0C0EFD0E0C80161E020
:1022700070E00E94E6338733E1F188338CF48333D6
:1022800061F1843344F4813311F182331CF58033DE
:1022900009F049C019C0853331F186333CF520C0BF
:1022A000823499F183343CF4893349F1893324F140
:1022B0008134C9F527C0843471F184344CF18534FC
:1022C00069F1863481F52DC080E090E02CC081E07A
:1022D00090E029C082E090E026C083E090E023C037
:1022E00084E090E020C085E090E01DC086E090E0B2
:1022F0001AC087E090E017C088E090E014C089E041
:1023000090E011C08AE090E00EC08BE090E00BC03E
:102310008CE090E008C08DE090E005C08EE090E099
:1023200002C08FE090E08C0FDF91CF911F910F9151
:1023300008957F928F929F92AF92BF92CF92DF9239
:10234000EF92FF920F931F93DF93CF93CDB7DEB73A
:1023500065970FB6F894DEBF0FBECDBFA82E792EBD
:10236000B42E842F82958F700AE117E0F801E80FF0
:10237000F11D4E010894811C911CC40160810E94D2
:1023800054369FE0C92ED12CCC0EDD1EC601B401FF
:102390000E94E33688E0E82EF12CEC0EFD1E8FE063
:1023A000B8220B0D111DC701F80160810E9454363F
:1023B000C601B7010E94D834BC018A2D972D0E9416
:1023C000D836C7010E94EE36C6010E94F436C40119
:1023D0000E94EE368A2D972D65960FB6F894DEBFD3
:1023E0000FBECDBFCF91DF911F910F91FF90EF9066
:1023F000DF90CF90BF90AF909F908F907F90089587
:102400000F931F938C010E949911C8011F910F9186
:1024100008956F927F928F929F92AF92BF92CF92C8
:10242000DF92EF92FF920F931F93DF93CF93CDB77D
:10243000DEB7C956D0400FB6F894DEBF0FBECDBF91
:102440003C01E8E0AE2EB12CAC0EBD1EC50160E033
:1024500072E00E9429356E010894C11CD11CC6018E
:10246000B301F30146AD0E949911C501B6010E9466
:10247000D8348C017FE0E72EF12CEC0EFD1EC70155
:10248000B301F30147AD0E949911C801B7010E9441
:10249000D834BC018E010A5E1F4FC8010E94D83695
:1024A000C8010E948E2AC8010E94EE36C7010E9410
:1024B000EE36C6010E94EE36C5010E94F436F301E5
:1024C00096AD80E027AD30E0282B392BF0E52A309F
:1024D0003F0709F4A8C080E52031380709F4E6C0B9
:1024E0002050374009F004C1E0E4F0E06E0E7F1E9A
:1024F000F301808120EC3FEF620E731E873008F4F9
:10250000F7C06DE1A62EB12CAC0EBD1EF301EB5B46
:10251000FF4FC501B30140810E94001254E2E52E35
:10252000F12CEC0EFD1EC701B5010E94E336C70178
:1025300066E072E00E94BC346C018E01055D1F4FA5
:10254000F301EC5BFF4FC801B30140810E94001210
:10255000C601B8010E94D834BC01C3010E960E9486
:10256000C136C8010E94EE36C7010E94F436C5018B
:102570000E94EE3649E3842E912C8C0E9D1EC401E0
:1025800068E072E00E94293532E3A32EB12CAC0E34
:10259000BD1EF301E75BFF4FC501B30140810E94FF
:1025A0000012C401B5010E94D8346BE072E00E94B1
:1025B000BC348C0120E4E22EF12CEC0EFD1EF30164
:1025C000E95BFF4FC701B30140810E940012C801BF
:1025D000B7010E94D8346BE072E00E94BC346C01F9
:1025E0008E01095B1F4FC801B301E6E4F0E06E0EF7
:1025F0007F1EF30140810E940012C601B8010E94B3
:10260000D834BC01C301C1970E94C136C8010E94E1
:10261000EE36C7010E94EE36C5010E94EE36C401B7
:102620000E94F43665C020E430E0620E731EF301B0
:10263000808120EC3FEF620E731E883008F458C092
:102640008E01025B1F4FF301EA5BFF4FC801B3012C
:1026500040810E94B310C3018396B8010E94C13625
:10266000C8010E94EE368E010B5A1F4FF301E65B44
:10267000FF4FC801B30140810E94C010C3014C96B6
:10268000B8010E94C136C8010E94EE368E01045A7C
:102690001F4FC801B301E8E4F0E06E0E7F1EF301A6
:1026A00040810E94B310C30147971CC021E431E070
:1026B000620E731EF30180812FEB3EEF620E731EDC
:1026C0008330B0F08E010D591F4FC801B301E4E40F
:1026D000F1E06E0E7F1EF30140810E94B310C30132
:1026E0008A519140B8010E94C136C8010E94EE365D
:1026F000C759DF4F0FB6F894DEBF0FBECDBFCF91E5
:10270000DF911F910F91FF90EF90DF90CF90BF90DE
:10271000AF909F908F907F906F9008952F923F92EF
:102720004F925F926F927F928F929F92AF92BF92E1
:10273000CF92DF92EF92FF920F93DF93CF93CDB7BB
:10274000DEB7C558D0400FB6F894DEBF0FBECDBF80
:102750002C01062F6A3AB1F5DC011B968D919C91F4
:102760001C97892BC9F0B201695F7F4F7E010894E5
:10277000E11CF11CC7010E94D836C201B7010E94BA
:10278000D410682F8AEE97E10E94AC30C7010E94F6
:10279000EE368EE090E0EAC123E432E0420E531EB2
:1027A000D2011C92F20112922F012FEF3EEF420E46
:1027B000531ED2011C92EFEBFEEF4E0E5F1E81E026
:1027C00090E067C2FC0180AD91AD0E9709F060C04A
:1027D00037E0232E312C240C351C28E0C22ED12CBE
:1027E000CC0EDD1EC601B1010E94D836C201B60171
:1027F0000E94D410F82EC6010E94EE360F1509F083
:1028000042C09FE0E92EF12CEC0EFD1EC701B10184
:1028100043E050E00E94B536C101B7010E94C136C5
:10282000C7010E94EE3686E1C82ED12CCC0EDD1EEB
:10283000BDE1EB2EF12CEC0EFD1E1DC0C601B10159
:102840000E94D836C201B6010E94D410682F8AEEC9
:1028500097E10E94AC30C6010E94EE36C701B1017B
:1028600043E050E00E94B536C101B7010E94C13675
:10287000C7010E94EE36D2011B968D919C911C9748
:10288000892BE1F605C081E090E0F20191AF80AFC5
:10289000D201D8968D919C91D9978730910561F09E
:1028A0000B9751F0F201ED5BFD4FA081B0E0A65D0A
:1028B000B84F8C9180278083F20180AD91AD863036
:1028C000910509F464C087309105ACF4833091051B
:1028D00009F43EC0843091053CF48130910531F11A
:1028E000029709F07EC22DC084309105C1F1059791
:1028F00009F077C239C08930910509F413C18A30D3
:10290000910544F48730910509F457C0089709F000
:1029100068C2F8C08B30910509F42AC18B3091054B
:102920000CF411C10C9709F05CC2B5C1D201DC9660
:102930000C93DC9782E090E0D9969C938E93D89785
:1029400050C2F20105AF83E090E091AF80AF49C281
:10295000D201DE960C93DE9784E090E0EDCFF20199
:1029600007AF85E090E0F1CFF201EE5BFD4F093A51
:1029700009F403C18081882309F492C110820023E5
:1029800009F48DC1013009F007C10AEA89C1F201D9
:10299000EE5BFD4F093A09F4F0C08081882309F409
:1029A0009BC11082002309F496C1013009F0F4C0E4
:1029B0000AEA92C187E090E0D9C0F201EE5BFD4FD8
:1029C000093A09F4DAC08081882309F4A5C110828C
:1029D000002309F4A0C1013009F0DEC00AEA9CC15D
:1029E000ABE26A2E712C6C0E7D1EC3016DE072E0AD
:1029F0000E942935F4E28F2E912C8C0E9D1EC4016D
:102A0000B201F70140810E949911C301B4010E94F3
:102A1000D8346DE172E00E94BC347C01E2E3AE2E5A
:102A2000B12CAC0EBD1EC501B201D6014C910E9465
:102A30009911C701B5010E94D83460E272E00E948A
:102A4000BC347C0179E3C72ED12CCC0EDD1EC6012F
:102A5000B201F20146AD0E949911C701B6010E9470
:102A6000D8341C0160E4E62EF12CEC0EFD1EC701EB
:102A7000B201D201DF964C910E949911C101B701B8
:102A80000E94D834BC01CE01895B9F4F0E94D8368A
:102A9000CE01895B9F4F0E948E2ACE01895B9F4F9A
:102AA000E1C0CE01825B9F4F67E272E00E940F356A
:102AB000CE01825B9F4F0E948E2ACE01825B9F4F88
:102AC0000E94EE36D201DD968C918E3FC1F4C20198
:102AD0000E940912F20111AE10AECE018B5A9F4F27
:102AE00063E372E00E940F35CE018B5A9F4F0E9424
:102AF0008E2ACE018B5A9F4F0E94EE3672C188E01B
:102B000090E0C7C0002309F0C6C0E3E4F2E04E0E37
:102B10005F1ED2011C92EDEBFDEF4E0E5F1E89E0B1
:102B200090E0B7C0F201EE5BFD4F093A31F18081D0
:102B3000882309F406C11082002309F401C1013081
:102B400059F50AEAFEC0F201EE5BFD4F093AA9F021
:102B50008081882309F411C11082002309F40CC17B
:102B60000130D1F40AEA09C18BE090E0F201EDCE28
:102B7000F201EE5BFD4F093A19F481E0808331C127
:102B80008081882309F419C11082002309F414C13B
:102B9000013011F40AEA11C1D201D9961C921E9299
:102BA000D8971FC153E6652E712C6C0E7D1EC30194
:102BB00062E472E00E9429354CE5842E912C8C0E43
:102BC0009D1EC401B201F70140810E949911C30109
:102BD000B4010E94D8346DE172E00E94BC347C01E3
:102BE0003AE6A32EB12CAC0EBD1EC501B201D60132
:102BF0004C910E949911C701B5010E94D83460E23E
:102C000072E00E94BC347C0121E7C22ED12CCC0E94
:102C1000DD1EC601B201F20146AD0E949911C70145
:102C2000B6010E94D8341C0198E7E92EF12CEC0E75
:102C3000FD1EC701B201D201DF964C910E9499118D
:102C4000C101B7010E94D834BC01CE0181589F4F09
:102C50000E94D836CE0181589F4F0E948E2ACE0105
:102C600081589F4F0E94EE36C7010E94EE36C60182
:102C70000E94EE36C5010E94EE36C4010E94EE3677
:102C8000C3010E94F43607C0C2010E9409128CE001
:102C900090E0D20151CEF20111AE10AEA2C009EA0D
:102CA00020E430E0420E531ED2010C93E0ECFFEF23
:102CB0004E0E5F1ED201DA960C93DA97DB961C92C9
:102CC000DB9786E090E0D9969C938E93D89700236B
:102CD00009F470CE86C009EAF20182AD93AD20E41A
:102CE00030E0420E531ED201EC9120EC3FEF420E39
:102CF000531EF0E0E81BF90BE40DF51DEF5BFF4FF1
:102D000000830197D201DB969C938E93DA97892BEF
:102D100009F450CE66C009EA80E4E82E81E0F82E7E
:102D2000E40CF51CF7010083B3E4CB2EB2E0DB2EFC
:102D3000C40CD51CD6018C91081709F051CEB1CE28
:102D400009EAE1E4F1E04E0E5F1ED2010C93EFEBD5
:102D5000FEEF4E0E5F1ED201DA960C93DA97DB96E9
:102D60001C92DB978AE090E0D9969C938E93D8973B
:102D7000002309F4F9CE35C009EAF20182AD93AD22
:102D800021E431E0420E531ED201EC912FEB3EEFD5
:102D9000420E531EF0E0E81BF90BE40DF51DEE5B4F
:102DA000FE4F00830197D201DB969C938E93DA97B6
:102DB000892B09F4D9CE15C009EAA1E4EA2EA2E0D4
:102DC000FA2EE40CF51CF7010083F3E4CF2EF2E0B9
:102DD000DF2EC40CD51CD6018C91081709F0E2CE69
:102DE00053CFCB57DF4F0FB6F894DEBF0FBECDBF2A
:102DF000CF91DF910F91FF90EF90DF90CF90BF9038
:102E0000AF909F908F907F906F905F904F903F908A
:102E10002F9008952F923F924F925F926F927F92E0
:102E20008F929F92AF92BF92CF92DF92EF92FF92DA
:102E30000F931F938C01B2E5EB2EB2E0FB2EB7018E
:102E40000E940F35C8010796B7010E940F35AEE00A
:102E50002A2E312C200E311EC101B7010E940F35E0
:102E6000F5E16F2E712C600E711EC301B7010E9437
:102E70000F35ECE14E2E512C400E511EC201B70110
:102E80000E940F3573E2872E912C800E911EC40193
:102E9000B7010E940F356AE2A62EB12CA00EB11E1A
:102EA000C501B7010E940F3551E3C52ED12CC00ECC
:102EB000D11EC601B7010E940F35F80111AE10AE48
:102EC000C10163E572E00E944335C30169E572E028
:102ED0000E94433544E6E42E42E0F42EC201B701DD
:102EE0000E944335C401B7010E944335C501B701B3
:102EF0000E944335C601B7010E9443350E5B1D4F4A
:102F0000F801108202541240F80113AE12AE0F5BAA
:102F10001D4FF801108201501140F80111928F01EC
:102F2000108201501140F801108200541040F80145
:102F300016AE17AE15AE14AE0D5B1D4FF801108224
:102F40001F910F91FF90EF90DF90CF90BF90AF90C7
:102F50009F908F907F906F905F904F903F902F90B9
:102F600008950F931F93CF93DF938B01CB0160E004
:102F700070E00E94E6338733E1F188338CF48333C9
:102F800061F1843344F4813311F182331CF58033D1
:102F900009F049C019C0853331F186333CF520C0B2
:102FA000823499F183343CF4893349F1893324F133
:102FB0008134C9F527C0843471F184344CF18534EF
:102FC00069F1863481F52DC0C0E0D0E02CC0C0E1AD
:102FD000D0E029C0C0E2D0E026C0C0E3D0E023C0EA
:102FE000C0E4D0E020C0C0E5D0E01DC0C0E6D0E025
:102FF0001AC0C0E7D0E017C0C0E8D0E014C0C0E9F4
:10300000D0E011C0C0EAD0E00EC0C0EBD0E00BC0F1
:10301000C0ECD0E008C0C0EDD0E005C0C0EED0E00C
:1030200002C0C0EFD0E0C80161E070E00E94E6336A
:103030008733E1F188338CF4833361F1843344F4D2
:10304000813311F182331CF5803309F049C019C076
:10305000853331F186333CF520C0823499F18334D5
:103060003CF4893349F1893324F18134C9F527C00F
:10307000843471F184344CF1853469F1863481F5FE
:103080002DC080E090E02CC081E090E029C082E07B
:1030900090E026C083E090E023C084E090E020C070
:1030A00085E090E01DC086E090E01AC087E090E0E7
:1030B00017C088E090E014C089E090E011C08AE079
:1030C00090E00EC08BE090E00BC08CE090E008C078
:1030D0008DE090E005C08EE090E002C08FE090E0CF
:1030E0008C0FDF91CF911F910F9108958F929F9236
:1030F000AF92BF92CF92DF92EF92FF920F931F9306
:10310000DF93CF93CDB7DEB727970FB6F894DEBF26
:103110000FBECDBFD82EC92E4B015A0167E672E013
:103120000E940F3500E010E07E010894E11CF11CC4
:1031300013C00E5F1F4FC701B50198010E946E3684
:10314000C401B7010E94B117682F8D2D9C2D0E94DC
:103150008E34C7010E94EE36A801F5018481958165
:103160000817190730F38D2D9C2D27960FB6F8946C
:10317000DEBF0FBECDBFCF91DF911F910F91FF90AA
:10318000EF90DF90CF90BF90AF909F908F90089579
:103190007F928F929F92AF92BF92CF92DF92EF92E7
:1031A000FF920F931F93DF93CF93CDB7DEB7659751
:1031B0000FB6F894DEBF0FBECDBFA82E792EB42E69
:1031C000842F82958F700AE218E0F801E80FF11D54
:1031D0004E010894811C911CC40160810E945436E8
:1031E0003FE0C32ED12CCC0EDD1EC601B4010E94DF
:1031F000E33628E0E22EF12CEC0EFD1E8FE0B82223
:103200000B0D111DC701F80160810E945436C601E3
:10321000B7010E94D834BC018A2D972D0E94D83660
:10322000C7010E94EE36C6010E94F436C4010E9416
:10323000EE368A2D972D65960FB6F894DEBF0FBE39
:10324000CDBFCF91DF911F910F91FF90EF90DF9055
:10325000CF90BF90AF909F908F907F9008950F93E5
:103260001F93DF93CF93CDB7DEB727970FB6F894B0
:10327000DEBF0FBECDBFFC01DB0124A935A982A9A9
:1032800093A92817390784F08E010F5F1F4FC801DB
:1032900068E672E00E940F35C8010E94B42AC80196
:1032A0000E94EE3680E007C0E20FF31FE05BFF4FA5
:1032B00080818C9381E027960FB6F894DEBF0FBE15
:1032C000CDBFCF91DF911F910F910895CF93DF93E1
:1032D000EC010E942F19882331F08CA99DA9019639
:1032E0009DAB8CAB81E0DF91CF9108950F931F933D
:1032F000DF93CF93CDB7DEB727970FB6F894DEBF35
:103300000FBECDBFFC01DB0124A935A982A993A979
:103310002817390784F08E010F5F1F4FC80168E638
:1033200072E00E940F35C8010E94B42AC8010E94B1
:10333000EE3680E007C0E20FF31FE05BFF4F8081B5
:103340008C9381E027960FB6F894DEBF0FBECDBFF9
:10335000CF91DF911F910F910895CF93DF93EC01EF
:103360000E947619882331F08CA99DA901969DAB06
:103370008CAB81E0DF91CF910895AF92BF92CF9255
:10338000DF92EF92FF920F931F93DF93CF93CDB70E
:10339000DEB7AD970FB6F894DEBF0FBECDBF8C0180
:1033A0005B01FB0111821082BE016F5F7F4F0E94A3
:1033B000AD19882309F47AC08981813009F477C076
:1033C000833661F17BE0C72ED12CCC0EDD1EC60109
:1033D00064E772E00E94293564E0E62EF12CEC0EE1
:1033E000FD1EC701B80149810E94C818C601B70176
:1033F0000E94D834BC018E010E5E1F4FC8010E948E
:10340000D836C8010E94B42AC8010E94EE36C7010E
:103410000E94EE36C6010E94F43648C0C801BE01C3
:103420006D5F7F4F0E94AD19882309F43FC0C8012A
:10343000BE016E5F7F4F0E94AD198823B9F19B8159
:1034400080E02A81820F911DF5019183808350E2F3
:10345000C52ED12CCC0EDD1EC6016CE772E00E9499
:10346000293549E1E42EF12CEC0EFD1EF5016081B9
:103470007181C70140E10E94C035C601B7010E94B9
:10348000D834BC018E01095D1F4FC8010E94D83697
:10349000C8010E948E2AC8010E94EE36C7010E9410
:1034A000EE36C6010E94F43681E001C080E0AD96A0
:1034B0000FB6F894DEBF0FBECDBFCF91DF911F9145
:1034C0000F91FF90EF90DF90CF90BF90AF90089555
:1034D000AF92BF92CF92DF92EF92FF920F931F9322
:1034E000DF93CF93CDB7DEB7AD970FB6F894DEBFBD
:1034F0000FBECDBF8C015B01FB0111821082BE01AA
:103500006F5F7F4F0E94AD19882309F47AC08981CB
:10351000813009F477C0833561F1ABE0CA2ED12C3C
:10352000CC0EDD1EC6016EE872E00E942935F4E083
:10353000EF2EF12CEC0EFD1EC701B80149810E944F
:10354000C818C601B7010E94D834BC018E010E5EB6
:103550001F4FC8010E94D836C8010E94B42AC80172
:103560000E94EE36C7010E94EE36C6010E94F43674
:1035700048C0C801BE016D5F7F4F0E94AD1988230E
:1035800009F43FC0C801BE016E5F7F4F0E94AD19B4
:103590008823B9F19B8180E02A81820F911DF5017A
:1035A00091838083E0E2CE2ED12CCC0EDD1EC601AD
:1035B00068E972E00E94293579E1E72EF12CEC0EE2
:1035C000FD1EF50160817181C7014AE00E94F1355D
:1035D000C601B7010E94D834BC018E01095D1F4F9E
:1035E000C8010E94D836C8010E948E2AC8010E94D4
:1035F000EE36C7010E94EE36C6010E94F43681E025
:1036000001C080E0AD960FB6F894DEBF0FBECDBF0F
:10361000CF91DF911F910F91FF90EF90DF90CF90AE
:10362000BF90AF900895AF92BF92CF92DF92EF928A
:10363000FF920F931F93DF93CF93CDB7DEB7AB9776
:103640000FB6F894DEBF0FBECDBF8C015B01FB014E
:103650001082BE016F5F7F4F0E94AD19882309F46D
:1036600069C08981813009F466C0823561F199E0D1
:10367000C92ED12CCC0EDD1EC6016FE972E00E946E
:10368000293582E0E82EF12CEC0EFD1EC701B801B1
:1036900049810E94C818C601B7010E94D834BC01F4
:1036A0008E01005F1F4FC8010E94D836C8010E94DA
:1036B000B42AC8010E94EE36C7010E94EE36C60148
:1036C0000E94F43637C0C801B5010E9466198823EC
:1036D00089F11EE1C12ED12CCC0EDD1EC60168EA97
:1036E00072E00E942935B7E1EB2EF12CEC0EFD1EA5
:1036F000F5016081772767FD7095C7014AE00E9458
:10370000F135C601B7010E94D834BC018E010B5DB2
:103710001F4FC8010E94D836C8010E948E2AC801D6
:103720000E94EE36C7010E94EE36C6010E94F436B2
:1037300081E001C080E0AB960FB6F894DEBF0FBE0B
:10374000CDBFCF91DF911F910F91FF90EF90DF9050
:10375000CF90BF90AF9008956F927F928F929F927B
:10376000AF92BF92CF92DF92EF92FF920F931F938F
:103770007C0107E612E0B8010E940F35C7010796E9
:10378000B8010E940F35C7010E96B8010E940F358F
:1037900055E1652E712C6E0C7F1CC301B8010E948F
:1037A0000F354CE1842E912C8E0C9F1CC401B80166
:1037B0000E940F3533E2A32EB12CAE0CBF1CC50105
:1037C000B8010E940F352AE2C22ED12CCE0CDF1C8C
:1037D000C601B8010E940F350EEA12E0C301B8011C
:1037E0000E944335C401B8010E944335C501B801A8
:1037F0000E944335C601B8010E944335F70117AA5C
:1038000016AA1F910F91FF90EF90DF90CF90BF907D
:10381000AF909F908F907F906F9008954F925F929E
:103820006F927F928F929F92AF92BF92CF92DF92D0
:10383000EF92FF920F931F93DF93CF93CDB7DEB735
:10384000AC970FB6F894DEBF0FBECDBF4C015B0145
:1038500080E090E0A0E0B0E0FB0180839183A28350
:10386000B383C401BE016F5F7F4F0E94AD198823EF
:1038700009F4C9C08981813009F4C6C0282F30E01D
:10388000C901807590708035910561F12AE0C22EE2
:10389000D12CCC0EDD1EC60164EB72E00E942935EE
:1038A00093E0E92EF12CEC0EFD1EC701B401498115
:1038B0000E94C818C601B7010E94D834BC018E010D
:1038C0000F5E1F4FC8010E94D836C8010E94B42A5B
:1038D000C8010E94EE36C7010E94EE36C6010E9462
:1038E000F43691C08FE0682E712C6222732201E0C1
:1038F000C02ED12C12E0412E512C4C0E5D1E2FC03B
:10390000C401B2010E94AD19882309F47CC0F501FD
:10391000608171818281938120E030E040E853E44E
:103920000E94553C7B018C01F50160837183828389
:1039300093836A8170E0882777FD8095982F0E9495
:10394000A13B9B01AC01C801B7010E940A3BF501F4
:1039500060837183828393830894C11CD11CC61435
:10396000D70474F2CE014F966CEB72E00E942935B9
:10397000F501E080F18002811381C801B70120E0E8
:1039800030E040E050E00E94513C88234CF0C801F8
:10399000B70120E030E040E05FE30E940A3B08C04E
:1039A000C801B70120E030E040E05FE30E94093B3E
:1039B0000E946E3BAB01BC01B8E1EB2EF12CEC0E8A
:1039C000FD1EC7012AE00E948E35AFE1CA2ED12C20
:1039D000CC0EDD1EC601B7010E94D834BC018E0199
:1039E0000A5D1F4FC8010E94D836C8010E948E2A66
:1039F000C8010E94EE36C7010E94EE36C6010E9441
:103A0000F43681E001C080E0AC960FB6F894DEBFDA
:103A10000FBECDBFCF91DF911F910F91FF90EF901F
:103A2000DF90CF90BF90AF909F908F907F906F90DE
:103A30005F904F900895AF92BF92CF92DF92EF9236
:103A4000FF920F931F93DF93CF93CDB7DEB7AC9761
:103A50000FB6F894DEBF0FBECDBF5C018B01FB013A
:103A60001082118212821382BE016F5F7F4F0E940B
:103A7000AD19882309F4C3C08981813009F4C0C01D
:103A8000853561F1AAE0CA2ED12CCC0EDD1EC6010F
:103A900061EC72E00E942935F3E0EF2EF12CEC0E80
:103AA000FD1EC701B50149810E94C818C601B701B2
:103AB0000E94D834BC018E010F5E1F4FC8010E94C6
:103AC000D836C8010E94B42AC8010E94EE36C70148
:103AD0000E94EE36C6010E94F43691C0E2E0EE2E5E
:103AE000F12CEC0EFD1EC501B7010E94AD19882313
:103AF00009F485C08A8190E0A0E0B0E0F8018083FD
:103B00009183A283B383C501B7010E94AD198823B5
:103B100009F475C0F80180819181A281B381BA2F27
:103B2000A92F982F88272A81820F911DA11DB11DD1
:103B300080839183A283B383C501B7010E94AD192D
:103B4000882309F45CC0F80180819181A281B3814E
:103B5000BA2FA92F982F88272A81820F911DA11D86
:103B6000B11D80839183A283B383C501B7010E94F5
:103B7000AD19882309F443C0F80180819181A281A5
:103B8000B381BA2FA92F982F88272A81820F911DE0
:103B9000A11DB11D80839183A283B3834FE1C42E05
:103BA000D12CCC0EDD1EC6016BEC72E00E942935D3
:103BB00038E1E32EF12CEC0EFD1EF801408151811D
:103BC00062817381C7012AE00E948E35C601B70168
:103BD0000E94D834BC018E010A5D1F4FC8010E94AB
:103BE000D836C8010E948E2AC8010E94EE36C7014D
:103BF0000E94EE36C6010E94F43681E001C080E0EA
:103C0000AC960FB6F894DEBF0FBECDBFCF91DF915B
:103C10001F910F91FF90EF90DF90CF90BF90AF90EA
:103C20000895AF92BF92CF92DF92EF92FF920F93DF
:103C30001F93DF93CF93CDB7DEB7AB970FB6F89452
:103C4000DEBF0FBECDBF8C015B01FB011082BE0148
:103C50006F5F7F4F0E94AD19882309F466C0898188
:103C6000813009F463C0823661F199E0C92ED12C0C
:103C7000CC0EDD1EC60162ED72E00E94293582E0A5
:103C8000E82EF12CEC0EFD1EC701B80149810E94FF
:103C9000C818C601B7010E94D834BC018E01005F6C
:103CA0001F4FC8010E94D836C8010E94B42AC8011B
:103CB0000E94EE36C7010E94EE36C6010E94F4361D
:103CC00034C0C801B5010E94AD19882371F11EE10D
:103CD000C12ED12CCC0EDD1EC60169ED72E00E9412
:103CE0002935B7E1EB2EF12CEC0EFD1EC701F501D5
:103CF000608140E10E942236C601B7010E94D8349B
:103D0000BC018E010B5D1F4FC8010E94D836C8014F
:103D10000E948E2AC8010E94EE36C7010E94EE362C
:103D2000C6010E94F43681E001C080E0AB960FB678
:103D3000F894DEBF0FBECDBFCF91DF911F910F91E1
:103D4000FF90EF90DF90CF90BF90AF9008959F923B
:103D5000AF92BF92CF92DF92EF92FF920F931F9399
:103D6000DF93CF93CDB7DEB7E2970FB6F894DEBFFF
:103D70000FBECDBF5C01962E69E0C62ED12CCC0EB5
:103D8000DD1EC6016DED72E00E94293552E0E52E80
:103D9000F12CEC0EFD1EC701692D40E10E94223678
:103DA000C601B7010E94D834BC018E01005F1F4FCD
:103DB000C8010E94D836C8010E948E2AC8010E94FC
:103DC000EE36C7010E94EE36C6010E94F436C501E8
:103DD000BE016F5F7F4F0E94AD198823B1F08981CA
:103DE000891599F481E0E2960FB6F894DEBF0FBE14
:103DF000CDBFCF91DF911F910F91FF90EF90DF909A
:103E0000CF90BF90AF909F9008954EE1A42EB12C1B
:103E1000AC0EBD1EC50164EE72E00E94293537E18B
:103E2000C32ED12CCC0EDD1EC601692D40E10E94AF
:103E30002236C501B6010E94D8346EEE72E00E94AF
:103E4000BC348C0125E2E22EF12CEC0EFD1EC701E4
:103E5000698140E10E942236C801B7010E94D8342E
:103E6000BC018E01045D1F4FC8010E94D836C801F5
:103E70000E94B42AC8010E94EE36C7010E94EE36A5
:103E8000C6010E94EE36C5010E94F43680E0ABCF39
:103E9000AF92BF92CF92DF92EF92FF920F931F9358
:103EA000DF93CF93CDB7DEB7AC970FB6F894DEBFF4
:103EB0000FBECDBF5C018B01FB011082118212820B
:103EC0001382BE016F5F7F4F0E94AD19882309F4F2
:103ED000C3C08981813009F4C0C0853661F17AE0C0
:103EE000C72ED12CCC0EDD1EC60160EF72E00E9401
:103EF000293563E0E62EF12CEC0EFD1EC701B5015D
:103F000049810E94C818C601B7010E94D834BC017B
:103F10008E010F5E1F4FC8010E94D836C8010E9453
:103F2000B42AC8010E94EE36C7010E94EE36C601CF
:103F30000E94F43691C052E0E52EF12CEC0EFD1EED
:103F4000C501B7010E94AD19882309F485C08A8193
:103F500090E0A0E0B0E0F80180839183A283B38376
:103F6000C501B7010E94AD19882309F475C0F80195
:103F700080819181A281B381BA2FA92F982F8827A0
:103F80002A81820F911DA11DB11D80839183A2837F
:103F9000B383C501B7010E94AD19882309F45CC041
:103FA000F80180819181A281B381BA2FA92F982F26
:103FB00088272A81820F911DA11DB11D80839183C5
:103FC000A283B383C501B7010E94AD19882309F408
:103FD00043C0F80180819181A281B381BA2FA92FBA
:103FE000982F88272A81820F911DA11DB11D8083E2
:103FF0009183A283B383EFE1CE2ED12CCC0EDD1EB4
:10400000C60168EF72E00E94293578E1E72EF12CB5
:10401000EC0EFD1EF8014081518162817381C70160
:104020002AE00E945C35C601B7010E94D834BC0169
:104030008E010A5D1F4FC8010E94D836C8010E9438
:104040008E2AC8010E94EE36C7010E94EE36C601D4
:104050000E94F43681E001C080E0AC960FB6F8947F
:10406000DEBF0FBECDBFCF91DF911F910F91FF90AB
:10407000EF90DF90CF90BF90AF900895AF92BF9236
:10408000CF92DF92EF92FF920F931F93DF93CF9324
:10409000CDB7DEB7E3970FB6F894DEBF0FBECDBF46
:1040A0008C016B01CB0167E672E00E944335C801C9
:1040B000BE016F5F7F4F0E94AD19882309F468C06D
:1040C0009981913011F481E083C0892F807761F16B
:1040D0001AE0C12ED12CCC0EDD1EC6016DEF72E0B0
:1040E0000E942935B3E0EB2EF12CEC0EFD1EC7012A
:1040F000698140E10E942236C601B7010E94D8348E
:10410000BC018E010F5E1F4FC8010E94D836C80146
:104110000E94B42AC8010E94EE36C7010E94EE3602
:10412000C6010E94F43634C097FF0FC08E01085EAE
:104130001F4FC8016BE073E00E940F35C8010E9459
:10414000B42AC8010E94EE3623C0A2E0AA2EB12CE8
:10415000AC0EBD1EFFE1EF2EF12CEC0EFD1E898191
:10416000815089838F5F8230A8F0C801B5010E9419
:10417000AD19882379F0C701B8014A810E94C81897
:10418000C601B7010E94A234C7010E94EE36E7CFF4
:1041900080E01EC0E6E2EE2EF12CEC0EFD1EC70103
:1041A00063E273E00E942935C701B6010E94D8344A
:1041B000BC018E01035D1F4FC8010E94D836C801A3
:1041C0000E948E2AC8010E94EE36C7010E94F43672
:1041D000E3960FB6F894DEBF0FBECDBFCF91DF914F
:1041E0001F910F91FF90EF90DF90CF90BF90AF9015
:1041F0000895CF92DF92EF92FF920F931F93DF9378
:10420000CF93CDB7DEB765970FB6F894DEBF0FBE7C
:10421000CDBF7C016E010894C11CD11CC60167E6AC
:1042200072E00E940F358E01085F1F4FC80168E2DF
:1042300073E00E940F35C8010E948E2AC8010E94B7
:10424000EE36C70161E70E94A71E8823B1F0C701BF
:10425000B6010E943E20882381F08E01015F1F4F2E
:10426000C8016AE373E00E940F35C8010E948E2ADC
:10427000C8010E94EE3601E001C000E0CE010196C7
:104280000E94EE36802F65960FB6F894DEBF0FBE03
:10429000CDBFCF91DF911F910F91FF90EF90DF90F5
:1042A000CF900895CF92DF92EF92FF920F931F93DA
:1042B000DF93CF93CDB7DEB765970FB6F894DEBF27
:1042C0000FBECDBF7C016E010894C11CD11CC6017C
:1042D00067E672E00E940F358E01085F1F4FC8012C
:1042E0006CE473E00E940F35C8010E948E2AC80159
:1042F0000E94EE36C70166E70E94A71E8823A1F13F
:10430000C701B6010E943E20882371F1C701B601A2
:104310000E943E20882341F1C701B6010E943E2041
:10432000882311F1C701B6010E943E208823E1F0E5
:10433000C701B6010E943E208823B1F0C701B60133
:104340000E943E20882381F08E01015F1F4FC8012B
:104350006EE573E00E940F35C8010E948E2AC801E5
:104360000E94EE3601E001C000E0CE0101960E94FD
:10437000EE36802F65960FB6F894DEBF0FBECDBF28
:10438000CF91DF911F910F91FF90EF90DF90CF9031
:104390000895CF92DF92EF92FF920F931F93DF93D6
:1043A000CF93CDB7DEB7C154D0400FB6F894DEBF7F
:1043B0000FBECDBF7C016B018E010F5E1F4FC80188
:1043C00060E773E00E940F35C8010E948E2AC80181
:1043D0000E94EE36C60167E672E00E944335C701CF
:1043E0008E010F5F1F4FB8010E947619882309F4D0
:1043F000B4C08981813029F4C701B8010E94AD1988
:10440000AAC0823609F45BC0833630F4853559F092
:10441000863509F08CC018C0833609F462C0853631
:1044200009F085C070C0C701BE01635F7F4F0E9465
:104430001B1D882309F491C08E01085E1F4F4D8516
:104440005E856F8578892FC0C701BE01675F7F4F8A
:104450000E940E1C882309F480C0E984FA840B852D
:104460001C85C801B70120E030E040E050E00E9428
:10447000513C88234CF0C801B70120E030E040E017
:104480005FE30E940A3B08C0C801B70120E030E0AA
:1044900040E05FE30E94093B0E946E3BAB01BC0120
:1044A0008E01015E1F4FC8012AE00E948E35C601B1
:1044B000B8010E94C136C8010E94EE363EC0C70155
:1044C000BE016E5F7F4F0E94111E882309F445C014
:1044D0008E010A5D1F4FC8016A814AE00E942236A0
:1044E000E6CFC701BE016D5F7F4F0E94BD198823D3
:1044F000A1F18E01035D1F4F6B817C81C8014AE0F1
:104500000E94C035D4CFC701BE016B5F7F4F0E94B0
:10451000481F882311F18E010C5C1F4F4D815E8175
:104520006F817885C8012AE00E945C35C0CFC70141
:10453000B6010E943E20882381F08E01055C1F4F4A
:10454000C8016BE773E00E940F35C8010E948E2AF4
:10455000C8010E94EE3681E001C080E0CF5BDF4FF2
:104560000FB6F894DEBF0FBECDBFCF91DF911F9184
:104570000F91FF90EF90DF90CF900895AF92BF9290
:10458000CF92DF92EF92FF920F931F93DF93CF931F
:10459000CDB7DEB7C056D0400FB6F894DEBF0FBE21
:1045A000CDBF5C018E010C5E1F4FC80166E873E051
:1045B0000E940F35C8010E948E2AC8010E94EE3663
:1045C0003BE1E32EF12CEC0EFD1EC70167E672E025
:1045D0000E940F35C5018E010F5F1F4FB8010E9469
:1045E0007619882309F4F6C08981823040F4C50128
:1045F000B8010E94AD198E010E5D1F4FDEC087FF0E
:104600000FC08E01075D1F4FC80162EA73E00E9470
:104610000F35C8010E94B42AC8010E94EE36DAC0E4
:10462000282F30E0C9018077907080369105E1F144
:10463000813691053CF4009751F08035910509F0E1
:104640008DC00AC08037910509F088C06EC0C501D1
:10465000B7010E943E2048C0C9018F779070833512
:10466000910569F08535910589F082359105A9F4A8
:10467000C501BE016D5F7F4F0E94131B35C0C50190
:10468000BE016A5F7F4F0E94681A2EC0C501BE013D
:10469000645F7F4F0E941B1D27C0C501BE01605F84
:1046A0007F4F0E940E1C20C0C9018F779070833607
:1046B000910569F08536910589F082369105C1F43E
:1046C000C501BE016E5F7F4F0E94111E0DC0C50166
:1046D000BE016C5F7F4F0E94BD1906C0C501BE01BF
:1046E000685F7F4F0E94481F882309F063C072C033
:1046F00027E3C22ED12CCC0EDD1EC6016EEB73E07B
:104700000E94293590E3E92EF12CEC0EFD1EC70125
:10471000698140E10E942236C601B7010E94D83467
:10472000BC018E01025C1F4F35C0C501B8010E945B
:10473000AD198981E82EFF248FE0E822FF2400E0F4
:1047400010E008C0C5010E94BE22882309F442C0BF
:104750000F5F1F4F0E151F05ACF32CC08CE4C82E45
:10476000D12CCC0EDD1EC60164EC73E00E9429350D
:1047700005E4E02EF12CEC0EFD1EC701B5014981C8
:104780000E94C818C601B7010E94D834BC018E012E
:104790000D5A1F4FC8010E94D836C8010E94B42A82
:1047A000C8010E94EE36C7010E94EE36C6010E9483
:1047B000F43610C08E01065A1F4FC80164E973E039
:1047C0000E940F35C8010E948E2AC8010E94EE3651
:1047D00011E001C010E0CE014B960E94EE36812F11
:1047E000C05ADF4F0FB6F894DEBF0FBECDBFCF91DA
:1047F000DF911F910F91FF90EF90DF90CF90BF90CE
:10480000AF900895AF92BF92CF92DF92EF92FF9256
:104810000F931F93DF93CF93CDB7DEB7CE54D04025
:104820000FB6F894DEBF0FBECDBF5C018E010E5FE8
:104830001F4FC80160ED73E00E940F35C8010E9450
:104840008E2AC8010E94EE36CE01099667E672E014
:104850000E940F35E0E1EE2EF12CEC0EFD1EC7019B
:1048600067E672E00E940F35CE01479667E672E078
:104870000E940F358E01025E1F4FC80167E672E08D
:104880000E940F35C50167E70E94A71E882309F41F
:104890008AC1C501B7010E943E20882309F483C163
:1048A000C5010E94BE22882309F47DC1C5010E9472
:1048B000BE22882309F477C1C5010E94BE22882345
:1048C00009F471C1C501BE016F5F7F4F0E94131BC8
:1048D000882309F468C1C501B8010E94C921882351
:1048E00009F461C1C5010E94BE22882309F45BC19D
:1048F000898187FF24C0C8016FED73E00E940834EE
:104900008823E9F48E010B5D1F4F7EE1E72EF12C29
:10491000EC0EFD1E2981332727FD30958AA19BA12E
:10492000280F391FC801B70140E050E00E946E36E1
:10493000C701B8010E94C136C8010E94EE368E013F
:10494000005F1F4FC80161EE73E00E9408348823A6
:1049500071F4C8016EEE73E00E940834882339F4C4
:10496000C8016BEF73E00E940834882301F18E01C7
:10497000045D1F4F6EE1C62ED12CCC0EDD1EC8018A
:10498000B6010E94D83653E3E52EF12CEC0EFD1E45
:10499000C701B501A8010E947618C601B7010E949F
:1049A000C136C7010E94EE36C8010E94EE368E0164
:1049B000005F1F4FC8016EEE73E00E940834882329
:1049C00059F1C80168E074E00E944335C5010E96B4
:1049D000BE01625E7F4F0E94C136C501459667E603
:1049E00072E00E9443358501045E1F4FC80167E6EF
:1049F00072E00E944335C501839667E672E00E942B
:104A00004335C5018A9667E672E00E944335C801C6
:104A100067E672E00E9443358E01005F1F4FC801B8
:104A200061E174E00E940834882361F0C8016EE1FE
:104A300074E00E944335C5014596BE01625E7F4F1A
:104A40000E94C1368E01005F1F4FC80167E274E00B
:104A50000E940834882361F0C80164E374E00E9476
:104A60004335C5014C96BE01625E7F4F0E94C13640
:104A70008E01005F1F4FC8016DE374E00E9408348F
:104A8000882361F0C8016AE474E00E944335C501DF
:104A90008396BE01625E7F4F0E94C1368E01005F29
:104AA0001F4FC80163E574E00E940834882361F059
:104AB000C80160E674E00E944335C5018A96BE01D4
:104AC000625E7F4F0E94C1368E01005F1F4FC8019A
:104AD00067E274E00E940834882361F0C80164E34F
:104AE00074E00E944335C5014C96BE01625E7F4F63
:104AF0000E94C1368E01005F1F4FC80161EE73E056
:104B00000E940834882329F0C80169E674E00E94F5
:104B100043358E01005F1F4FC8016BEF73E00E94A9
:104B20000834882329F0C80164E774E00E94433503
:104B30004AE3E42EF12CEC0EFD1EC7016DE774E094
:104B40000E942935C701BE01605F7F4F0E94D834A3
:104B500061E874E00E94BC34BE01625E7F4F0E9437
:104B6000D834BC018E010F5B1F4FC8010E94D8369C
:104B7000C80161E070E00E94842AC8010E94EE36FC
:104B8000C7010E94F4368E01085B1F4FC80163E81D
:104B900074E00E940F35C8010E948E2AC8010E944D
:104BA000EE3611E001C010E0CE014E960E94EE36C6
:104BB000CE0147960E94EE36CE0140960E94EE3618
:104BC000CE0109960E94EE36812FC25BDF4F0FB6F1
:104BD000F894DEBF0FBECDBFCF91DF911F910F9133
:104BE000FF90EF90DF90CF90BF90AF9008952F92FD
:104BF0003F924F925F926F927F928F929F92AF926D
:104C0000BF92CF92DF92EF92FF920F931F93DF93A9
:104C1000CF93CDB7DEB7E2970FB6F894DEBF0FBEE5
:104C2000CDBF1C018E010E5F1F4FC80162E974E009
:104C30000E940F35C8010E948E2AC8010E94EE36DC
:104C4000C101BE016F5F7F4F0E94AD19882309F437
:104C50007EC08981682F70E0CB01807F90708037A3
:104C6000910579F08E01075F1F4FC8016FE974E06D
:104C70000E940F35C8010E94B42AC8010E94EE3676
:104C800066C00FE0402E512C46225722EE24FF240E
:104C900017E1612E712C6C0E7D1EB0E18B2E912CD4
:104CA0008C0E9D1EAEE1AA2EB12CAC0EBD1EF5E2FF
:104CB000CF2ED12CCC0EDD1E37C0C3016EEA74E0BE
:104CC0000E9429350894E11CF11CC401B7014AE097
:104CD0000E94F135C301B4010E94D83469EB74E03D
:104CE0000E94BC348C01C501B2014AE00E94F1353A
:104CF000C801B5010E94D834BC01C6010E94D83653
:104D0000C6010E948E2AC6010E94EE36C5010E948D
:104D1000EE36C4010E94EE36C3010E94F436C10192
:104D20000E940224882399F0E414F50434F28E01E1
:104D3000045D1F4FC8016FEB74E00E940F35C8017E
:104D40000E948E2AC8010E94EE3681E001C080E0F8
:104D5000E2960FB6F894DEBF0FBECDBFCF91DF91C4
:104D60001F910F91FF90EF90DF90CF90BF90AF9089
:104D70009F908F907F906F905F904F903F902F907B
:104D80000895EF92FF920F931F93DF93CF93CDB7C8
:104D9000DEB765970FB6F894DEBF0FBECDBF7C01BE
:104DA0008E010F5F1F4FC8016CEC74E00E940F353D
:104DB000C8010E948E2AC8010E94EE368E01085F4B
:104DC0001F4FC80167E672E00E940F35C70167E711
:104DD0000E94A71E8823B9F1C701B8010E943E2096
:104DE000882389F1C701B8010E943E20882359F128
:104DF000C701B8010E943E20882329F1C7010E9403
:104E0000BE22882301F1C7010E94F7258823D9F02B
:104E1000C7010E94BE228823B1F0C701B8010E94D9
:104E20003E20882381F08E01015F1F4FC8016EED87
:104E300074E00E940F35C8010E948E2AC8010E94AA
:104E4000EE3601E001C000E0CE0108960E94EE3689
:104E5000802F65960FB6F894DEBF0FBECDBFCF9101
:104E6000DF911F910F91FF90EF900895CF92DF9205
:104E7000EF92FF920F931F93DF93CF93CDB7DEB7DF
:104E8000EA970FB6F894DEBF0FBECDBF7C016B0171
:104E90008E010D5F1F4FC80160EF74E00E940F3557
:104EA000C8010E948E2AC8010E94EE36F6011082C7
:104EB000C70162E70E94A71E882309F484C0C701C6
:104EC000BE016F5F7F4F0E94BD19882309F47BC02C
:104ED00089819A81F2E081309F07A1F027E081303B
:104EE000920741F18150914089F5C7010E945221FA
:104EF000882309F058C08E01065F1F4FC80161E08A
:104F000075E00BC0C7010E94F920882379F48E0157
:104F10000F5E1F4FC80162E175E00E940F35C801A6
:104F20000E94B42AC8010E94EE364DC081E0F6010D
:104F3000808339C0C7010E94C1268823A1F58E0154
:104F4000085E1F4FC80163E275E0E7CF96E2C92E05
:104F5000D12CCC0EDD1EC60164E375E00E9429351C
:104F60008FE1E82EF12CEC0EFD1E69817A81C701DC
:104F700040E10E94C035C601B7010E94D834BC018F
:104F80008E01035D1F4FC8010E94D836C8010E94E0
:104F9000B42AC8010E94EE36C7010E94EE36C6014F
:104FA0000E94F43610C08E010C5C1F4FC80165E4EE
:104FB00075E00E940F35C8010E948E2AC8010E9428
:104FC000EE3681E001C080E0EA960FB6F894DEBFCD
:104FD0000FBECDBFCF91DF911F910F91FF90EF904A
:104FE000DF90CF9008956F927F928F929F92AF92B1
:104FF000BF92CF92DF92EF92FF920F931F93DF93B6
:10500000CF93CDB7DEB76A970FB6F894DEBF0FBE69
:10501000CDBF7C018E010A5F1F4FC80166E575E0B8
:105020000E940F35C8010E948E2AC8010E94EE36E8
:10503000F70115AA14AA19828E01035F1F4FC80138
:1050400067E672E00E940F35380132E0832E912C22
:105050008C0E9D1E23E0A22EB12CAC0EBD1E6E0147
:105060000894C11CD11C8E010C5F1F4F2AC0C701C0
:1050700066E70E94A71E8823E9F1C701B3010E94D9
:105080003E208823B9F1C701B4010E94111E882374
:1050900089F1C701B5010E94111E882359F1C7018A
:1050A000B6010E943627882329F1C701B8010E9462
:1050B000BD198823F9F0C70160E00E94A71E88236C
:1050C000C9F0F70124A935A982A993A9281739079E
:1050D0001CF48981882359F28E010C5E1F4FC80190
:1050E00061E675E00E940F35C8010E948E2AC80152
:1050F0000E94EE36CE010D960E94EE366A960FB6ED
:10510000F894DEBF0FBECDBFCF91DF911F910F91FD
:10511000FF90EF90DF90CF90BF90AF909F908F90D7
:105120007F906F9008952F923F924F925F926F926F
:105130007F928F929F92AF92BF92CF92DF92EF9227
:10514000FF920F931F93DF93CF93CDB7DEB7C65473
:10515000D0400FB6F894DEBF0FBECDBF2C01062F96
:10516000FC0186A997A98230910509F471C08330AA
:10517000910534F4009781F0019709F0ABC11FC08D
:105180008430910509F4F5C0843091050CF4C6C053
:10519000059709F09FC1F8C0F20111AA11AE10AE37
:1051A00013AE12AE13AA12AAC201079667E672E006
:1051B0000E94433581E090E0F20197AB86ABF201AB
:1051C00080AD91AD8430910554F40B3121F40196FA
:1051D00091AF80AF12C0F20111AE10AE0EC001301F
:1051E00039F4F20182AD93AD019693AF82AF05C061
:1051F000F20111AE10AE13AE12AEF20180AD91AD60
:10520000049709F067C182AD93AD049709F062C1BC
:1052100088E394E0480E591E8CED91E9F2019183E8
:10522000808388EC9BEF480E591E8E010F5F1F4F45
:10523000C8016AE775E00E940F35C80162E070E0BE
:105240000E94842AC8010E94EE3682E090E098C055
:10525000F20142A953A9F3E0483E5F070CF037C1C1
:10526000F201E40FF51FE05BFF4F60834F5F5F4F7C
:10527000F20153AB42ABD201A85CBB4F2D913C91E4
:105280001197E62FF0E0E227F327F070EE0FFF1FF3
:10529000E65CF74F232F3327808191818227932764
:1052A0008D939C93F201E40FF51FE15BFF4F80812A
:1052B000EF54F0408A3109F00DC1E25BFF4F80816D
:1052C000EE54F0408B3109F005C1E35BFF4F808164
:1052D000ED54F0408B3109F0FDC0E45BFF4F80815D
:1052E000EC54F0408B3109F0F5C0E55BFF4F808155
:1052F0008B3109F0EFC08E01085F1F4FC80165E9CF
:1053000075E00E940F35C80162E070E00E94842AB7
:10531000C8010E94EE3683E090E032C0643078F03D
:105320008E01015F1F4FC80164EA75E00E940F35CE
:10533000C8010E948E2AC8010E94EE36C8C0D20160
:10534000A85CBB4F2D913C911197E62FF0E0E2272E
:10535000F327F070EE0FFF1FE65CF74F232F332784
:1053600080819181822793278D939C9384E090E0A4
:1053700007C0F201E65CFB4F6083118285E090E09C
:10538000F20197AB86ABA6C0AAE3EA2EA4E0FA2E00
:10539000E40CF51C962F80E0F70120813181280F65
:1053A000391F31832083F8E32F2EF4E03F2E240CA5
:1053B000351CF10180819181809590959183808346
:1053C00028173907C9F48E010A5E1F4FC80168EB20
:1053D00075E00E940F35C80162E070E00E94842AE7
:1053E000C8010E94EE3681E0F20181ABC2010E9449
:1053F000F327F20111AA6BC0E4E26E2E712C6C0E41
:105400007D1EC30165EC75E00E9429357DE1872E84
:10541000912C8C0E9D1EF7014181C401B2010E94A6
:10542000C818C301B4010E94D8348C016BE2A62EC7
:10543000B12CAC0EBD1EC501B201F70140810E9426
:10544000C818C801B5010E94D83463ED75E00E9408
:10545000BC348C0152E3C52ED12CCC0EDD1EF101E3
:105460004181C601B2010E94C818C801B6010E945C
:10547000D8348C0149E3E42EF12CEC0EFD1EC7015B
:10548000B201F10140810E94C818C801B7010E9411
:10549000D834BC018E01005C1F4FC8010E94D83671
:1054A000C80161E070E00E94842AC8010E94EE36C3
:1054B000C7010E94EE36C6010E94EE36C5010E9469
:1054C000EE36C4010E94EE36C3010E94F436F201AA
:1054D00017AA16AACA5BDF4F0FB6F894DEBF0FBE3D
:1054E000CDBFCF91DF911F910F91FF90EF90DF9093
:1054F000CF90BF90AF909F908F907F906F905F9074
:105500004F903F902F9008959C016B3071052CF4C3
:1055100084E897E1B9010E94D23308950F931F9355
:10552000DF93CF93CDB7DEB727970FB6F894DEBFE2
:105530000FBECDBFBC018E010F5F1F4FC8010E947F
:10554000D836C80163E070E00E94842AC8010E9436
:10555000EE3627960FB6F894DEBF0FBECDBFCF91C3
:10556000DF911F910F9108950F931F93DF93CF93B6
:10557000CDB7DEB727970FB6F894DEBF0FBECDBF0D
:10558000BC018E010F5F1F4FC8010E94D836C801B1
:105590006AE070E00E94842AC8010E94EE362796D5
:1055A0000FB6F894DEBF0FBECDBFCF91DF911F9134
:1055B0000F9108950F931F938C018A960E94EE36E7
:1055C000C80183960E94EE36C8014C960E94EE36C2
:1055D000C80145960E94EE36C8010E960E94EE362E
:1055E000C80107960E94EE36C8010E94EE361F9150
:1055F0000F9108950F938130910539F56F5F7F4FBB
:1056000009F050C08EE595E160E040E020E000E068
:105610000E94223286E99AE060EC48EA21E000EF3D
:105620000E9422328CE99AE060E570E00E94F10C61
:1056300082EA9AE00E940A1786EE9CE00E94AC1B68
:1056400082E291E10E94AC1B2DC0892B59F56F5F5E
:105650007F4F41F582E291E10E94DA2A86EE9CE0DA
:105660000E94DA2A83ED9AE00E94EE368CEC9AE0F2
:105670000E94EE3685EC9AE00E94EE368EEB9AE0C0
:105680000E94EE3687EB9AE00E94EE3680EB9AE0BD
:105690000E94EE3689EA9AE00E94EE3682EA9AE0AB
:1056A0000E94EE360F91089580E090E06FEF7FEF5B
:1056B0000E94FA2A089581E090E06FEF7FEF0E9448
:1056C000FA2A0895EF92FF920F931F93182F092F34
:1056D0007B0169ED75E00E94893385E190E0E80E79
:1056E000F91E812F902FB7010E949F33812F902F99
:1056F00060EE75E00E94893389EF9FEFE80EF91E96
:10570000812F902FB7010E94D233812F902F62EE0C
:1057100075E00E94893385E190E0E80EF91E812F43
:10572000902FB7010E94D233812F902F65EE75E044
:105730000E9489338EE090E0E80EF91E812F902FB1
:10574000B7010E94D233812F902F68EE75E00E943E
:10575000893389EF9FEFE80EF91E812F902FB70153
:105760000E94D233812F902F6BEE75E00E94893317
:1057700082EF9FEFE80EF91E812F902FB7010E9454
:10578000D233812F902F0E94C8321F910F91FF902A
:10579000EF900895EF92FF920F931F93182F092F08
:1057A0007B016EEE75E00E9489338EE090E0E80E9A
:1057B000F91E812F902FB7010E94D233812F902F95
:1057C00066EF75E00E94893387E090E0E80EF91EED
:1057D000812F902FB7010E94D233812F902F60E04C
:1057E00076E00E94893387E090E0E80EF91E812F71
:1057F000902FB7010E94D233812F902F6AE076E07C
:105800000E94893387E090E0E80EF91E812F902FE7
:10581000B7010E94D233812F902F64E176E00E947D
:10582000893387E090E0E80EF91E812F902FB701B1
:105830000E94D233812F902F0E94C8321F910F9166
:10584000FF90EF900895FF920F931F93DF93CF93F4
:10585000CDB7DEB72D970FB6F894DEBF0FBECDBF24
:105860008E010F5F1F4FC8016CE97AE00E94DF0DC7
:10587000C8010E94130B882309F47AC0FF24F39413
:10588000C801102F092F63C0812F902F0E94DF0BBA
:10589000892B09F45CC0812F902F0E94C30B8A30A2
:1058A00009F052C0FF2019F4FF24F39450C0812F57
:1058B000902F6EE176E00E948C33812F902F6EE264
:1058C00076E00E948C33812F902F66E476E00E9470
:1058D0008C33812F902F0E94C832812F902F68E542
:1058E00076E00E948C33812F902F68E676E00E944C
:1058F0008C33812F902F6FE676E00E948C33812FBE
:10590000902F68E976E00E948C33812F902F62EA15
:105910007AE00E94622B812F902F66EE7CE00E943D
:10592000CA2B812F902F62E271E10E94CA2B812F36
:10593000902F6EE976E00E948C33812F902F65EADC
:1059400076E00E948C330AC08D3009F0FF24812F4D
:10595000902F0E94330B882309F096CF61E070E00E
:1059600080E090E00E94BA39CE0101960E94570B68
:105970002D960FB6F894DEBF0FBECDBFCF91DF914D
:105980001F910F91FF900895CF93DF93C0E0D0E077
:10599000219683E0C93ED80781F08AEE97E10E9404
:1059A0004230892B51F08AEE97E10E947330682FC4
:1059B00082EA9AE00E948E13EBCFDF91CF91089597
:1059C000CF93DF938091170D8823B9F4C0E0D0E026
:1059D000219683E0C93ED80781F088EC97E10E94C8
:1059E0004230892B51F088EC97E10E947330682F88
:1059F00082E291E10E949328EBCFDF91CF9108954D
:105A0000CF93DF93809153118823B9F4C0E0D0E0A5
:105A1000219683E0C93ED80781F086EA97E10E948B
:105A20004230892B51F086EA97E10E947330682F4B
:105A300086EE9CE00E949328EBCFDF91CF910895F2
:105A40000F931F9304E817E1C80140E855E260E0B6
:105A500070E00E94BB2F86EA97E140E855E260E0E3
:105A600070E00E94BB2F88EC97E140E855E260E0CF
:105A700070E00E94BB2F8AEE97E140E659E060E0BB
:105A800070E00E94BB2FC8016DEA76E00E948C3363
:105A90001F910F910895DF93CF9300D000D0CDB721
:105AA000DEB70E94202D8EE49AE09A83898380914C
:105AB000980A9091990AA0919A0AB0919B0A8B83B7
:105AC0009C83AD83BE8386E79AE066EC76E0AE0108
:105AD0004F5F5F4F0E949B0A8CE99AE00E94570E2D
